{
  "contractName": "FactoryContract",
  "abi": [
    {
      "inputs": [
        {
          "internalType": "string",
          "name": "name",
          "type": "string"
        },
        {
          "internalType": "string",
          "name": "symbol",
          "type": "string"
        }
      ],
      "name": "deployERC20Token",
      "outputs": [
        {
          "internalType": "address",
          "name": "tokenAddress",
          "type": "address"
        }
      ],
      "stateMutability": "nonpayable",
      "type": "function"
    },
    {
      "inputs": [
        {
          "internalType": "address",
          "name": "remittanceAddress",
          "type": "address"
        },
        {
          "internalType": "string",
          "name": "bankName",
          "type": "string"
        },
        {
          "internalType": "address",
          "name": "bankAddress",
          "type": "address"
        },
        {
          "internalType": "address",
          "name": "bankTokenAddress",
          "type": "address"
        },
        {
          "internalType": "uint8",
          "name": "bankTokenType",
          "type": "uint8"
        },
        {
          "internalType": "uint64",
          "name": "buyRate",
          "type": "uint64"
        },
        {
          "internalType": "uint64",
          "name": "sellRate",
          "type": "uint64"
        }
      ],
      "name": "deployFXContract",
      "outputs": [
        {
          "internalType": "address",
          "name": "fxContractAddress",
          "type": "address"
        }
      ],
      "stateMutability": "nonpayable",
      "type": "function"
    },
    {
      "inputs": [
        {
          "internalType": "address",
          "name": "remitTokenAddress",
          "type": "address"
        },
        {
          "internalType": "uint8",
          "name": "remitTokenType",
          "type": "uint8"
        }
      ],
      "name": "deployRemittanceContract",
      "outputs": [
        {
          "internalType": "address",
          "name": "remittanceContractAddress",
          "type": "address"
        }
      ],
      "stateMutability": "nonpayable",
      "type": "function"
    }
  ],
  "bytecode": "0x6080604052600080546001600160601b031916680600000000000f424017905534801561002b57600080fd5b5061589b8061003b6000396000f3fe60806040523480156200001157600080fd5b5060043610620000465760003560e01c80632c21fc1e146200004b5780637e3ce952146200007e578063eef2df401462000095575b600080fd5b620000626200005c36600462000282565b620000ac565b6040516001600160a01b03909116815260200160405180910390f35b620000626200008f3660046200031c565b62000127565b62000062620000a63660046200036d565b62000158565b6000805481908490849063ffffffff6801000000000000000082041690620000e29067ffffffffffffffff16620f42406200041e565b33604051620000f190620001ad565b62000101959493929190620004ad565b604051809103906000f0801580156200011e573d6000803e3d6000fd5b50949350505050565b60008083836040516200013a90620001bb565b6001600160a01b03909216825260ff16602082015260400162000101565b600080888888888888886040516200017090620001c9565b6200018297969594939291906200050a565b604051809103906000f0801580156200019f573d6000803e3d6000fd5b509998505050505050505050565b610e8e806200056b83390190565b61201380620013f983390190565b61245a806200340c83390190565b634e487b7160e01b600052604160045260246000fd5b600082601f830112620001ff57600080fd5b813567ffffffffffffffff808211156200021d576200021d620001d7565b604051601f8301601f19908116603f01168101908282118183101715620002485762000248620001d7565b816040528381528660208588010111156200026257600080fd5b836020870160208301376000602085830101528094505050505092915050565b600080604083850312156200029657600080fd5b823567ffffffffffffffff80821115620002af57600080fd5b620002bd86838701620001ed565b93506020850135915080821115620002d457600080fd5b50620002e385828601620001ed565b9150509250929050565b80356001600160a01b03811681146200030557600080fd5b919050565b803560ff811681146200030557600080fd5b600080604083850312156200033057600080fd5b6200033b83620002ed565b91506200034b602084016200030a565b90509250929050565b803567ffffffffffffffff811681146200030557600080fd5b600080600080600080600060e0888a0312156200038957600080fd5b6200039488620002ed565b9650602088013567ffffffffffffffff811115620003b157600080fd5b620003bf8a828b01620001ed565b965050620003d060408901620002ed565b9450620003e060608901620002ed565b9350620003f0608089016200030a565b92506200040060a0890162000354565b91506200041060c0890162000354565b905092959891949750929550565b600067ffffffffffffffff808316818516818304811182151516156200045457634e487b7160e01b600052601160045260246000fd5b02949350505050565b6000815180845260005b81811015620004855760208185018101518683018201520162000467565b8181111562000498576000602083870101525b50601f01601f19169290920160200192915050565b60a081526000620004c260a08301886200045d565b8281036020840152620004d681886200045d565b60ff969096166040840152505067ffffffffffffffff9290921660608301526001600160a01b031660809091015292915050565b60006001600160a01b03808a16835260e060208401526200052f60e084018a6200045d565b978116604084015295909516606082015260ff93909316608084015267ffffffffffffffff91821660a08401521660c090910152509291505056fe60806040523480156200001157600080fd5b5060405162000e8e38038062000e8e8339810160408190526200003491620002d3565b8451859085906200004d90600390602085019062000160565b5080516200006390600490602084019062000160565b5050506200008f818460ff16600a6200007d919062000498565b620000899085620004ad565b6200009a565b505050505062000526565b6001600160a01b038216620000f55760405162461bcd60e51b815260206004820152601f60248201527f45524332303a206d696e7420746f20746865207a65726f206164647265737300604482015260640160405180910390fd5b8060026000828254620001099190620004cf565b90915550506001600160a01b038216600081815260208181526040808320805486019055518481527fddf252ad1be2c89b69c2b068fc378daa952ba7f163c4a11628f55a4df523b3ef910160405180910390a35050565b8280546200016e90620004ea565b90600052602060002090601f016020900481019282620001925760008555620001dd565b82601f10620001ad57805160ff1916838001178555620001dd565b82800160010185558215620001dd579182015b82811115620001dd578251825591602001919060010190620001c0565b50620001eb929150620001ef565b5090565b5b80821115620001eb5760008155600101620001f0565b634e487b7160e01b600052604160045260246000fd5b600082601f8301126200022e57600080fd5b81516001600160401b03808211156200024b576200024b62000206565b604051601f8301601f19908116603f0116810190828211818310171562000276576200027662000206565b816040528381526020925086838588010111156200029357600080fd5b600091505b83821015620002b7578582018301518183018401529082019062000298565b83821115620002c95760008385830101525b9695505050505050565b600080600080600060a08688031215620002ec57600080fd5b85516001600160401b03808211156200030457600080fd5b6200031289838a016200021c565b965060208801519150808211156200032957600080fd5b5062000338888289016200021c565b945050604086015160ff811681146200035057600080fd5b6060870151608088015191945092506001600160a01b03811681146200037557600080fd5b809150509295509295909350565b634e487b7160e01b600052601160045260246000fd5b600181815b80851115620003da578160001904821115620003be57620003be62000383565b80851615620003cc57918102915b93841c93908002906200039e565b509250929050565b600082620003f35750600162000492565b81620004025750600062000492565b81600181146200041b5760028114620004265762000446565b600191505062000492565b60ff8411156200043a576200043a62000383565b50506001821b62000492565b5060208310610133831016604e8410600b84101617156200046b575081810a62000492565b62000477838362000399565b80600019048211156200048e576200048e62000383565b0290505b92915050565b6000620004a68383620003e2565b9392505050565b6000816000190483118215151615620004ca57620004ca62000383565b500290565b60008219821115620004e557620004e562000383565b500190565b600181811c90821680620004ff57607f821691505b6020821081036200052057634e487b7160e01b600052602260045260246000fd5b50919050565b61095880620005366000396000f3fe608060405234801561001057600080fd5b50600436106100c95760003560e01c80633950935111610081578063a457c2d71161005b578063a457c2d714610187578063a9059cbb1461019a578063dd62ed3e146101ad57600080fd5b8063395093511461014357806370a082311461015657806395d89b411461017f57600080fd5b806318160ddd116100b257806318160ddd1461010f57806323b872dd14610121578063313ce5671461013457600080fd5b806306fdde03146100ce578063095ea7b3146100ec575b600080fd5b6100d66101e6565b6040516100e39190610796565b60405180910390f35b6100ff6100fa366004610807565b610278565b60405190151581526020016100e3565b6002545b6040519081526020016100e3565b6100ff61012f366004610831565b610290565b604051601281526020016100e3565b6100ff610151366004610807565b6102b4565b61011361016436600461086d565b6001600160a01b031660009081526020819052604090205490565b6100d66102f3565b6100ff610195366004610807565b610302565b6100ff6101a8366004610807565b6103b1565b6101136101bb36600461088f565b6001600160a01b03918216600090815260016020908152604080832093909416825291909152205490565b6060600380546101f5906108c2565b80601f0160208091040260200160405190810160405280929190818152602001828054610221906108c2565b801561026e5780601f106102435761010080835404028352916020019161026e565b820191906000526020600020905b81548152906001019060200180831161025157829003601f168201915b5050505050905090565b6000336102868185856103bf565b5060019392505050565b60003361029e858285610517565b6102a98585856105a9565b506001949350505050565b3360008181526001602090815260408083206001600160a01b038716845290915281205490919061028690829086906102ee9087906108fc565b6103bf565b6060600480546101f5906108c2565b3360008181526001602090815260408083206001600160a01b0387168452909152812054909190838110156103a45760405162461bcd60e51b815260206004820152602560248201527f45524332303a2064656372656173656420616c6c6f77616e63652062656c6f7760448201527f207a65726f00000000000000000000000000000000000000000000000000000060648201526084015b60405180910390fd5b6102a982868684036103bf565b6000336102868185856105a9565b6001600160a01b03831661043a5760405162461bcd60e51b8152602060048201526024808201527f45524332303a20617070726f76652066726f6d20746865207a65726f2061646460448201527f7265737300000000000000000000000000000000000000000000000000000000606482015260840161039b565b6001600160a01b0382166104b65760405162461bcd60e51b815260206004820152602260248201527f45524332303a20617070726f766520746f20746865207a65726f20616464726560448201527f7373000000000000000000000000000000000000000000000000000000000000606482015260840161039b565b6001600160a01b0383811660008181526001602090815260408083209487168084529482529182902085905590518481527f8c5be1e5ebec7d5bd14f71427d1e84f3dd0314c0f7b2291e5b200ac8c7c3b925910160405180910390a3505050565b6001600160a01b0383811660009081526001602090815260408083209386168352929052205460001981146105a357818110156105965760405162461bcd60e51b815260206004820152601d60248201527f45524332303a20696e73756666696369656e7420616c6c6f77616e6365000000604482015260640161039b565b6105a384848484036103bf565b50505050565b6001600160a01b0383166106255760405162461bcd60e51b815260206004820152602560248201527f45524332303a207472616e736665722066726f6d20746865207a65726f20616460448201527f6472657373000000000000000000000000000000000000000000000000000000606482015260840161039b565b6001600160a01b0382166106a15760405162461bcd60e51b815260206004820152602360248201527f45524332303a207472616e7366657220746f20746865207a65726f206164647260448201527f6573730000000000000000000000000000000000000000000000000000000000606482015260840161039b565b6001600160a01b038316600090815260208190526040902054818110156107305760405162461bcd60e51b815260206004820152602660248201527f45524332303a207472616e7366657220616d6f756e742065786365656473206260448201527f616c616e63650000000000000000000000000000000000000000000000000000606482015260840161039b565b6001600160a01b03848116600081815260208181526040808320878703905593871680835291849020805487019055925185815290927fddf252ad1be2c89b69c2b068fc378daa952ba7f163c4a11628f55a4df523b3ef910160405180910390a36105a3565b600060208083528351808285015260005b818110156107c3578581018301518582016040015282016107a7565b818111156107d5576000604083870101525b50601f01601f1916929092016040019392505050565b80356001600160a01b038116811461080257600080fd5b919050565b6000806040838503121561081a57600080fd5b610823836107eb565b946020939093013593505050565b60008060006060848603121561084657600080fd5b61084f846107eb565b925061085d602085016107eb565b9150604084013590509250925092565b60006020828403121561087f57600080fd5b610888826107eb565b9392505050565b600080604083850312156108a257600080fd5b6108ab836107eb565b91506108b9602084016107eb565b90509250929050565b600181811c908216806108d657607f821691505b6020821081036108f657634e487b7160e01b600052602260045260246000fd5b50919050565b6000821982111561091d57634e487b7160e01b600052601160045260246000fd5b50019056fea2646970667358221220d5645f2bf8b6f146c31ac88765406700b81e475637643eb8691619137da5d26564736f6c634300080e0033608060405260058054600160a01b600160e01b031916613d0960a61b1790553480156200002b57600080fd5b5060405162002013380380620020138339810160408190526200004e9162000373565b600160208181527fa6eef7e35abe7026729641147f7915573c7e97b47efa546f5f6e3230263bcb499190915560027fcc69885fda6bcc1a4ace058b4a62bf5e179ea78fd58a1ccd71c22cc9b688792f5560047fd9d16d34ffb15ba3a3d852f0d403e2ce1d691fb54de27ac87cd2f993f3ec330f81905560087f7dfe757ecd65cbd7922a9c0161e935dd7fdbcc0e999689c7d31633896b1fc60b5560107fedc95719e9a3b28dd8e80877cb5880a9be7de1a13fc8b05e7999683b6b567643557fe2689cd4a84e23ad2f564004f1c9013e9589d260bde6380aba3ca7e09e4df40c91909155600660005260407f8f331abe73332f95a25873e8b430885974c0409691f89d643119a11623a7924a5580546001600160a01b0384166001600160a81b031990911617600160a01b60ff848116820292909217928390559091041662000228576000620001be30600460009054906101000a90046001600160a01b03166200029760201b6200133d1760201c565b90506016811480620001d0575060c281145b620002215760405162461bcd60e51b815260206004820152601e60248201527f52656d697420746f6b656e206173736f63696174696f6e206661696c65640000604482015260640160405180910390fd5b5062000244565b600580546001600160a01b0319166001600160a01b0384161790555b604080516001600160a01b038416815260ff8316602082015260168183015290517f582c65ac4dd381a1b4e153f12363b1b276a4a9aba4a5bf8bcc3e360caee37d979181900360600190a150506200042c565b604080516001600160a01b038481166024830152831660448083019190915282518083039091018152606490910182526020810180516001600160e01b031663248a35ef60e11b17905290516000918291829161016791620002fa9190620003c2565b6000604051808303816000865af19150503d806000811462000339576040519150601f19603f3d011682016040523d82523d6000602084013e6200033e565b606091505b5091509150816200035157601562000367565b8080602001905181019062000367919062000400565b60030b95945050505050565b600080604083850312156200038757600080fd5b82516001600160a01b03811681146200039f57600080fd5b602084015190925060ff81168114620003b757600080fd5b809150509250929050565b6000825160005b81811015620003e55760208186018101518583015201620003c9565b81811115620003f5576000828501525b509190910192915050565b6000602082840312156200041357600080fd5b81518060030b81146200042557600080fd5b9392505050565b611bd7806200043c6000396000f3fe608060405234801561001057600080fd5b506004361061011b5760003560e01c80633263b545116100b25780639b23d3d911610081578063cf3b9dc111610066578063cf3b9dc11461027f578063eac6f3fe14610291578063fbbf93a0146102a457600080fd5b80639b23d3d914610259578063cb3e41911461026c57600080fd5b80633263b5451461020d578063666a19f81461022057806374bccc3c14610233578063989176e11461024657600080fd5b806315dacbea116100ee57806315dacbea146101bc57806318930469146101cf578063248f0839146101e25780632e44715d146101f757600080fd5b806301c30ef31461012057806302fe9cdb1461015157806311e1fc0714610176578063147fdea01461019c575b600080fd5b61013361012e3660046114dc565b6102bd565b60405167ffffffffffffffff90911681526020015b60405180910390f35b6004546001600160a01b03165b6040516001600160a01b039091168152602001610148565b610189610184366004611537565b6103e9565b60405160079190910b8152602001610148565b6101af6101aa366004611599565b6104f3565b6040516101489190611610565b6101896101ca366004611537565b6105f6565b6101336101dd3660046114dc565b6106ca565b6101f56101f036600461162a565b61077d565b005b6002545b60405160ff9091168152602001610148565b61015e61021b366004611648565b61087b565b6101f561022e366004611661565b6108a5565b61015e610241366004611648565b610b9a565b6101f5610254366004611700565b610baa565b610189610267366004611537565b6110c6565b6101af61027a366004611599565b61110b565b600454600160a01b900460ff166101fb565b61018961029f366004611537565b611205565b6102ac61124a565b6040516101489594939291906117d2565b6040517f9837067700000000000000000000000000000000000000000000000000000000815267ffffffffffffffff8216600482015260009081906001600160a01b03861690639837067790602401602060405180830381865afa158015610329573d6000803e3d6000fd5b505050506040513d601f19601f8201168201806040525081019061034d9190611822565b6040517f97bdfcfa00000000000000000000000000000000000000000000000000000000815267ffffffffffffffff821660048201529091506000906001600160a01b038616906397bdfcfa906024015b602060405180830381865afa1580156103bb573d6000803e3d6000fd5b505050506040513d601f19601f820116820180604052508101906103df9190611822565b9695505050505050565b6040516001600160a01b038581166024830152848116604483015283166064820152608481018290526000908190819061016790639b23d3d960e01b9060a4015b60408051601f198184030181529181526020820180516001600160e01b03167fffffffff00000000000000000000000000000000000000000000000000000000909416939093179092529051610480919061186f565b600060405180830381855af49150503d80600081146104bb576040519150601f19603f3d011682016040523d82523d6000602084013e6104c0565b606091505b5091509150816104d15760156104e5565b808060200190518101906104e5919061188b565b60030b979650505050505050565b6060600061050183856118c4565b905060028054905060ff168160ff161061051a57506002545b600061052685836118e9565b60ff1667ffffffffffffffff811115610541576105416116ea565b60405190808252806020026020018201604052801561056a578160200160208202803683370190505b50905060ff85165b8260ff168110156105ed57600281815481106105905761059061190c565b6000918252602090912001546001600160a01b0316826105b360ff891684611922565b815181106105c3576105c361190c565b6001600160a01b0390921660209283029190910190910152806105e581611939565b915050610572565b50949350505050565b6040516001600160a01b038581166024830152848116604483015283166064820152608481018290526000908190819061016790630aed65f560e11b9060a4015b60408051601f198184030181529181526020820180516001600160e01b03167fffffffff0000000000000000000000000000000000000000000000000000000090941693909317909252905161068d919061186f565b6000604051808303816000865af19150503d80600081146104bb576040519150601f19603f3d011682016040523d82523d6000602084013e6104c0565b604051635f00af3360e01b815267ffffffffffffffff8216600482015260009081906001600160a01b03861690635f00af3390602401602060405180830381865afa15801561071d573d6000803e3d6000fd5b505050506040513d601f19601f820116820180604052508101906107419190611822565b6040516374f5cad760e01b815267ffffffffffffffff821660048201529091506000906001600160a01b038616906374f5cad79060240161039e565b6004805460ff808416600160a01b9081027fffffffffffffffffffffff0000000000000000000000000000000000000000009093166001600160a01b03871617929092179283905591041661084d576004546000906107e69030906001600160a01b031661133d565b905060168114806107f7575060c281145b6108485760405162461bcd60e51b815260206004820152601e60248201527f52656d697420746f6b656e206173736f63696174696f6e206661696c6564000060448201526064015b60405180910390fd5b505050565b600580546001600160a01b03841673ffffffffffffffffffffffffffffffffffffffff199091161790555050565b6003818154811061088b57600080fd5b6000918252602090912001546001600160a01b0316905081565b604051635f00af3360e01b815267ffffffffffffffff851660048201526000906001600160a01b03881690635f00af3390602401602060405180830381865afa1580156108f6573d6000803e3d6000fd5b505050506040513d601f19601f8201168201806040525081019061091a9190611822565b6040516374f5cad760e01b815267ffffffffffffffff821660048201529091506000906001600160a01b038816906374f5cad790602401602060405180830381865afa15801561096e573d6000803e3d6000fd5b505050506040513d601f19601f820116820180604052508101906109929190611822565b90506000816109a2866064611952565b6109ac9190611982565b6109b79060646119b7565b90508360070b6109c68261142a565b60070b1315610a175760405162461bcd60e51b815260206004820152601160248201527f736c697070616765206578636565646564000000000000000000000000000000604482015260640161083f565b6040517f2316d33100000000000000000000000000000000000000000000000000000000815233600482015267ffffffffffffffff8089166024830152841660448201526001600160a01b0389811660648301528a1690632316d33190608401600060405180830381600087803b158015610a9157600080fd5b505af1158015610aa5573d6000803e3d6000fd5b50506040517f88a4c59500000000000000000000000000000000000000000000000000000000815267ffffffffffffffff851660048201526001600160a01b0389811660248301528b1692506388a4c5959150604401600060405180830381600087803b158015610b1557600080fd5b505af1158015610b29573d6000803e3d6000fd5b5050604080513381526001600160a01b038a16602082015267ffffffffffffffff8b81168284015287811660608301528616608082015290517ffd8fa77eadf48e7703b74ae09e201046939f0d53e3e125f0968550de7656e06c93509081900360a0019150a1505050505050505050565b6002818154811061088b57600080fd5b6004546001600160a01b0316610c025760405162461bcd60e51b815260206004820152601760248201527f52656d697420746f6b656e206e6f742063726561746564000000000000000000604482015260640161083f565b60005b600254811015610c8c57336001600160a01b031660028281548110610c2c57610c2c61190c565b6000918252602090912001546001600160a01b031603610c7a57836040517f6ef690ae00000000000000000000000000000000000000000000000000000000815260040161083f9190611a35565b80610c8481611939565b915050610c05565b506002805460018082019092557f405787fa12a823e0f2b7631cc41b3ba8828b3321ca811111fa75cd3aa3bb5ace0180543373ffffffffffffffffffffffffffffffffffffffff19918216179091556003805492830181556000527fc2575a0e9e593c00f959f8c92f12db2869c3395a3b0502d05e2516446f71f85b90910180549091166001600160a01b03838116918217909255600480546040517fb453ee4000000000000000000000000000000000000000000000000000000000815293811691840191909152600160a01b900460ff166024830152829163b453ee4090604401600060405180830381600087803b158015610d8957600080fd5b505af1158015610d9d573d6000803e3d6000fd5b5050600454600160a01b900460ff169150610e72905057600454600554600091610df4916001600160a01b039091169030908690610def90600160a01b900467ffffffffffffffff16620f4240611a48565b61144d565b905060168114610e6c5760405162461bcd60e51b815260206004820152602a60248201527f5472616e736665722052656d697420546f6b656e7320746f204658436f6e747260448201527f616374206661696c656400000000000000000000000000000000000000000000606482015260840161083f565b50610f39565b6005546001600160a01b0381169063a9059cbb908490610ea690600160a01b900467ffffffffffffffff16620f4240611952565b6040517fffffffff0000000000000000000000000000000000000000000000000000000060e085901b1681526001600160a01b03909216600483015267ffffffffffffffff1660248201526044016020604051808303816000875af1158015610f13573d6000803e3d6000fd5b505050506040513d601f19601f82011682018060405250810190610f379190611adf565b505b6000816001600160a01b0316633d35d7ba6040518163ffffffff1660e01b8152600401602060405180830381865afa158015610f79573d6000803e3d6000fd5b505050506040513d601f19601f82011682018060405250810190610f9d9190611822565b90506000826001600160a01b031663226fd9eb6040518163ffffffff1660e01b8152600401602060405180830381865afa158015610fdf573d6000803e3d6000fd5b505050506040513d601f19601f820116820180604052508101906110039190611822565b90506000836001600160a01b03166366f780e96040518163ffffffff1660e01b8152600401602060405180830381865afa158015611045573d6000803e3d6000fd5b505050506040513d601f19601f820116820180604052508101906110699190611b01565b6004546040519192507f8bf072c57227117512eea64cc203e3dedb14e4b0c6b3e441703fdb837dd010a0916110b59188918b918b916001600160a01b0390911690899089908990611b1e565b60405180910390a150505050505050565b6040516001600160a01b038581166024830152848116604483015283166064820152608481018290526000908190819061016790639b23d3d960e01b9060a401610637565b6060600061111983856118c4565b905060038054905060ff168160ff161061113257506003545b600061113e85836118e9565b60ff1667ffffffffffffffff811115611159576111596116ea565b604051908082528060200260200182016040528015611182578160200160208202803683370190505b50905060ff85165b8260ff168110156105ed57600381815481106111a8576111a861190c565b6000918252602090912001546001600160a01b0316826111cb60ff891684611922565b815181106111db576111db61190c565b6001600160a01b0390921660209283029190910190910152806111fd81611939565b91505061118a565b6040516001600160a01b038581166024830152848116604483015283166064820152608481018290526000908190819061016790630aed65f560e11b9060a40161042a565b600454600280546040805160208084028201810190925282815260609485946000948594859492936003936001600160a01b03821693600160a01b90920460ff1692869083908301828280156112c957602002820191906000526020600020905b81546001600160a01b031681526001909101906020018083116112ab575b505050505094508380548060200260200160405190810160405280929190818152602001828054801561132557602002820191906000526020600020905b81546001600160a01b03168152600190910190602001808311611307575b50505050509350945094509450945094509091929394565b604080516001600160a01b038481166024830152831660448083019190915282518083039091018152606490910182526020810180516001600160e01b03167f49146bde00000000000000000000000000000000000000000000000000000000179052905160009182918291610167916113b7919061186f565b6000604051808303816000865af19150503d80600081146113f4576040519150601f19603f3d011682016040523d82523d6000602084013e6113f9565b606091505b50915091508161140a57601561141e565b8080602001905181019061141e919061188b565b60030b95945050505050565b6000808260070b12156114455761144082611b7a565b611447565b815b92915050565b6040516001600160a01b038581166024830152848116604483015283166064820152600782900b608482015260009081908190610167907feca36917000000000000000000000000000000000000000000000000000000009060a401610637565b6001600160a01b03811681146114c357600080fd5b50565b67ffffffffffffffff811681146114c357600080fd5b6000806000606084860312156114f157600080fd5b83356114fc816114ae565b9250602084013561150c816114ae565b9150604084013561151c816114c6565b809150509250925092565b8035611532816114ae565b919050565b6000806000806080858703121561154d57600080fd5b8435611558816114ae565b93506020850135611568816114ae565b92506040850135611578816114ae565b9396929550929360600135925050565b803560ff8116811461153257600080fd5b600080604083850312156115ac57600080fd5b6115b583611588565b91506115c360208401611588565b90509250929050565b600081518084526020808501945080840160005b838110156116055781516001600160a01b0316875295820195908201906001016115e0565b509495945050505050565b60208152600061162360208301846115cc565b9392505050565b6000806040838503121561163d57600080fd5b82356115b5816114ae565b60006020828403121561165a57600080fd5b5035919050565b60008060008060008060c0878903121561167a57600080fd5b8635611685816114ae565b95506020870135611695816114ae565b945060408701356116a5816114c6565b935060608701356116b5816114ae565b925060808701356116c5816114c6565b915060a0870135600781900b81146116dc57600080fd5b809150509295509295509295565b634e487b7160e01b600052604160045260246000fd5b60008060006060848603121561171557600080fd5b833567ffffffffffffffff8082111561172d57600080fd5b818601915086601f83011261174157600080fd5b813581811115611753576117536116ea565b604051601f8201601f19908116603f0116810190838211818310171561177b5761177b6116ea565b8160405282815289602084870101111561179457600080fd5b8260208601602083013760006020848301015280975050505050506117bb60208501611527565b91506117c960408501611527565b90509250925092565b60a0815260006117e560a08301886115cc565b82810360208401526117f781886115cc565b6001600160a01b03969096166040840152505060ff9283166060820152911660809091015292915050565b60006020828403121561183457600080fd5b8151611623816114c6565b60005b8381101561185a578181015183820152602001611842565b83811115611869576000848401525b50505050565b6000825161188181846020870161183f565b9190910192915050565b60006020828403121561189d57600080fd5b81518060030b811461162357600080fd5b634e487b7160e01b600052601160045260246000fd5b600060ff821660ff84168060ff038211156118e1576118e16118ae565b019392505050565b600060ff821660ff841680821015611903576119036118ae565b90039392505050565b634e487b7160e01b600052603260045260246000fd5b600082821015611934576119346118ae565b500390565b60006001820161194b5761194b6118ae565b5060010190565b600067ffffffffffffffff80831681851681830481118215151615611979576119796118ae565b02949350505050565b600067ffffffffffffffff808416806119ab57634e487b7160e01b600052601260045260246000fd5b92169190910492915050565b60008160070b8360070b6000811281677fffffffffffffff19018312811516156119e3576119e36118ae565b81677fffffffffffffff0183138116156119ff576119ff6118ae565b5090039392505050565b60008151808452611a2181602086016020860161183f565b601f01601f19169290920160200192915050565b6020815260006116236020830184611a09565b60008160070b8360070b677fffffffffffffff600082136000841383830485118282161615611a7957611a796118ae565b677fffffffffffffff196000851282811687830587121615611a9d57611a9d6118ae565b60008712925085820587128484161615611ab957611ab96118ae565b85850587128184161615611acf57611acf6118ae565b5050509290910295945050505050565b600060208284031215611af157600080fd5b8151801515811461162357600080fd5b600060208284031215611b1357600080fd5b8151611623816114ae565b60006001600160a01b03808a16835260e06020840152611b4160e084018a611a09565b978116604084015295861660608301525067ffffffffffffffff93841660808201529190921660a0820152911660c09091015292915050565b60008160070b677fffffffffffffff198103611b9857611b986118ae565b6000039291505056fea2646970667358221220191752c1335d42a2513c7c783b4715e6eac1f0703c310e3d4642cc004141818364736f6c634300080e00336080604081905260098054600160a01b600160e01b031916613d0960a61b1790556200245a388190039081908339810160408190526200003f91620004d5565b600160208181527fa6eef7e35abe7026729641147f7915573c7e97b47efa546f5f6e3230263bcb499190915560027fcc69885fda6bcc1a4ace058b4a62bf5e179ea78fd58a1ccd71c22cc9b688792f5560047fd9d16d34ffb15ba3a3d852f0d403e2ce1d691fb54de27ac87cd2f993f3ec330f5560087f7dfe757ecd65cbd7922a9c0161e935dd7fdbcc0e999689c7d31633896b1fc60b5560107fedc95719e9a3b28dd8e80877cb5880a9be7de1a13fc8b05e7999683b6b567643557fe2689cd4a84e23ad2f564004f1c9013e9589d260bde6380aba3ca7e09e4df40c819055600660005260407f8f331abe73332f95a25873e8b430885974c0409691f89d643119a11623a7924a55600980546001600160a01b0319166001600160a01b038a1617905586516200017791600791908901906200039f565b50600680546001600160a01b038088166001600160a01b0319909216919091179091556005805460ff808716600160a01b9081026001600160a81b0319909316948916949094179190911791829055600880546001600160401b0386811668010000000000000000026001600160801b031990921690881617179055919004166200029a5760006200022a30600560009054906101000a90046001600160a01b0316620002c360201b6200146e1760201c565b905060168114620002935760405162461bcd60e51b815260206004820152602960248201527f436f6e7472616374206173736f63696174696f6e20746f20737461626c65636f6044820152681a5b8819985a5b195960ba1b606482015260840160405180910390fd5b50620002b6565b600280546001600160a01b0319166001600160a01b0386161790555b5050505050505062000686565b604080516001600160a01b038481166024830152831660448083019190915282518083039091018152606490910182526020810180516001600160e01b031663248a35ef60e11b1790529051600091829182916101679162000326919062000600565b6000604051808303816000865af19150503d806000811462000365576040519150601f19603f3d011682016040523d82523d6000602084013e6200036a565b606091505b5091509150816200037d57601562000393565b808060200190518101906200039391906200061e565b60030b95945050505050565b828054620003ad906200064a565b90600052602060002090601f016020900481019282620003d157600085556200041c565b82601f10620003ec57805160ff19168380011785556200041c565b828001600101855582156200041c579182015b828111156200041c578251825591602001919060010190620003ff565b506200042a9291506200042e565b5090565b5b808211156200042a57600081556001016200042f565b80516001600160a01b03811681146200045d57600080fd5b919050565b634e487b7160e01b600052604160045260246000fd5b60005b83811015620004955781810151838201526020016200047b565b83811115620004a5576000848401525b50505050565b805160ff811681146200045d57600080fd5b80516001600160401b03811681146200045d57600080fd5b600080600080600080600060e0888a031215620004f157600080fd5b620004fc8862000445565b60208901519097506001600160401b03808211156200051a57600080fd5b818a0191508a601f8301126200052f57600080fd5b81518181111562000544576200054462000462565b604051601f8201601f19908116603f011681019083821181831017156200056f576200056f62000462565b816040528281528d60208487010111156200058957600080fd5b6200059c83602083016020880162000478565b809a505050505050620005b26040890162000445565b9450620005c26060890162000445565b9350620005d260808901620004ab565b9250620005e260a08901620004bd565b9150620005f260c08901620004bd565b905092959891949750929550565b600082516200061481846020870162000478565b9190910192915050565b6000602082840312156200063157600080fd5b81518060030b81146200064357600080fd5b9392505050565b600181811c908216806200065f57607f821691505b6020821081036200068057634e487b7160e01b600052602260045260246000fd5b50919050565b611dc480620006966000396000f3fe608060405234801561001057600080fd5b50600436106101ce5760003560e01c80637822ed4911610104578063aa5f1373116100a2578063d6dad06011610071578063d6dad0601461041a578063eac6f3fe1461042d578063fbbf93a014610440578063fc37987b1461045a57600080fd5b8063aa5f1373146103cd578063b453ee40146103e0578063c7b6eab4146103f3578063d2d7bd291461040757600080fd5b806397bdfcfa116100de57806397bdfcfa1461038157806398370677146103945780639b23d3d9146103a7578063a3630643146103ba57600080fd5b80637822ed491461034857806388a4c5951461035b5780638d3ecfae1461036e57600080fd5b806329664ac6116101715780635f00af331161014b5780635f00af33146102f15780636217229b1461030457806366f780e91461032457806374f5cad71461033557600080fd5b806329664ac6146102b95780632a308b3a146102cc5780633d35d7ba146102df57600080fd5b806315dacbea116101ad57806315dacbea14610249578063226fd9eb1461025c5780632316d3311461028f57806327d35801146102a457600080fd5b806276498b146101d357806310fe9ae8146101fe57806311e1fc0714610223575b600080fd5b6005546101e790600160a81b900460ff1681565b60405160ff90911681526020015b60405180910390f35b6005546001600160a01b03165b6040516001600160a01b0390911681526020016101f5565b6102366102313660046119f6565b61046e565b60405160079190910b81526020016101f5565b6102366102573660046119f6565b610578565b60085468010000000000000000900467ffffffffffffffff165b60405167ffffffffffffffff90911681526020016101f5565b6102a261029d366004611a59565b61064c565b005b6102ac6108c5565b6040516101f59190611b05565b6102a26102c7366004611b18565b610953565b6102a26102da366004611b4b565b610c0a565b60085467ffffffffffffffff16610276565b6102766102ff366004611b8e565b610c31565b6008546102769068010000000000000000900467ffffffffffffffff1681565b6006546001600160a01b031661020b565b610276610343366004611b8e565b610cd4565b60065461020b906001600160a01b031681565b6102a2610369366004611ba9565b610d59565b60055461020b906001600160a01b031681565b61027661038f366004611b8e565b610e67565b6102766103a2366004611b8e565b610eed565b6102366103b53660046119f6565b610f7f565b60045461020b906001600160a01b031681565b6102a26103db366004611bd3565b610fc4565b6102a26103ee366004611bef565b611071565b6005546101e790600160a01b900460ff1681565b60095461020b906001600160a01b031681565b6102a2610428366004611b18565b61119a565b61023661043b3660046119f6565b61133f565b610448611384565b6040516101f596959493929190611c2c565b6008546102769067ffffffffffffffff1681565b6040516001600160a01b038581166024830152848116604483015283166064820152608481018290526000908190819061016790639b23d3d960e01b9060a4015b60408051601f198184030181529181526020820180516001600160e01b03167fffffffff000000000000000000000000000000000000000000000000000000009094169390931790925290516105059190611c80565b600060405180830381855af49150503d8060008114610540576040519150601f19603f3d011682016040523d82523d6000602084013e610545565b606091505b50915091508161055657601561056a565b8080602001905181019061056a9190611c9c565b60030b979650505050505050565b6040516001600160a01b038581166024830152848116604483015283166064820152608481018290526000908190819061016790630aed65f560e11b9060a4015b60408051601f198184030181529181526020820180516001600160e01b03167fffffffff0000000000000000000000000000000000000000000000000000000090941693909317909252905161060f9190611c80565b6000604051808303816000865af19150503d8060008114610540576040519150601f19603f3d011682016040523d82523d6000602084013e610545565b6009546001600160a01b0316331461066357600080fd5b6000808467ffffffffffffffff16116106b45760405162461bcd60e51b815260206004820152600e60248201526d416d6f756e74206973207a65726f60901b60448201526064015b60405180910390fd5b600554600160a01b900460ff16610734576005546106dd906001600160a01b031686308761155b565b90506016811461072f5760405162461bcd60e51b815260206004820152601e60248201527f4661696c656420746f207472616e7366657220737461626c6520636f696e000060448201526064016106ab565b6107bc565b6002546040516323b872dd60e01b81526001600160a01b03878116600483015230602483015267ffffffffffffffff87166044830152909116906323b872dd906064016020604051808303816000875af1158015610796573d6000803e3d6000fd5b505050506040513d601f19601f820116820180604052508101906107ba9190611cbf565b505b600554600160a81b900460ff1661083c576004546107e5906001600160a01b031630848661155b565b9050601681146108375760405162461bcd60e51b815260206004820152601e60248201527f4661696c656420746f207472616e736665722072656d697420746f6b656e000060448201526064016106ab565b6108be565b60035460405163a9059cbb60e01b81526001600160a01b03848116600483015267ffffffffffffffff861660248301529091169063a9059cbb906044016020604051808303816000875af1158015610898573d6000803e3d6000fd5b505050506040513d601f19601f820116820180604052508101906108bc9190611cbf565b505b5050505050565b600780546108d290611ce1565b80601f01602080910402602001604051908101604052809291908181526020018280546108fe90611ce1565b801561094b5780601f106109205761010080835404028352916020019161094b565b820191906000526020600020905b81548152906001019060200180831161092e57829003601f168201915b505050505081565b6006546001600160a01b0316331461096a57600080fd5b60008167ffffffffffffffff16116109b55760405162461bcd60e51b815260206004820152600e60248201526d416d6f756e74206973207a65726f60901b60448201526064016106ab565b6004546001600160a01b03838116911614806109cf575060015b610a1b5760405162461bcd60e51b815260206004820181905260248201527f4f6e6c792072656d6974206f722062616e6b20746f6b656e20616c6c6f77656460448201526064016106ab565b6004546001600160a01b0390811690831603610aea57600554600160a81b900460ff16610a5f57600454610a5a906001600160a01b03163330846115bc565b610bb0565b6003546040516323b872dd60e01b815233600482015230602482015267ffffffffffffffff831660448201526001600160a01b03909116906323b872dd906064015b6020604051808303816000875af1158015610ac0573d6000803e3d6000fd5b505050506040513d601f19601f82011682018060405250810190610ae49190611cbf565b50610bb0565b6005546001600160a01b0390811690831603610bb057600554600160a01b900460ff16610b2957600554610a5a906001600160a01b03163330846115bc565b6002546040516323b872dd60e01b815233600482015230602482015267ffffffffffffffff831660448201526001600160a01b03909116906323b872dd906064015b6020604051808303816000875af1158015610b8a573d6000803e3d6000fd5b505050506040513d601f19601f82011682018060405250810190610bae9190611cbf565b505b604080513381526001600160a01b038416602082015267ffffffffffffffff8316918101919091527fb868fea9333b79a8e8e6c334c1d5775693b25dde20c73dc63d4272aeda80a88f906060015b60405180910390a15050565b6009546001600160a01b03163314610c2157600080fd5b610c2c838383611800565b505050565b6009546000906001600160a01b03163314610c8e5760405162461bcd60e51b815260206004820181905260248201527f4f6e6c792072656d697474616e636520636f6e747261637420616c6c6f77656460448201526064016106ab565b60085460095460009167ffffffffffffffff68010000000000000000909104811691610cc391600160a01b9091041685611d1b565b610ccd9190611d59565b9392505050565b6009546000906001600160a01b03163314610d315760405162461bcd60e51b815260206004820181905260248201527f4f6e6c792072656d697474616e636520636f6e747261637420616c6c6f77656460448201526064016106ab565b60095460085460009167ffffffffffffffff600160a01b909104811691610cc3911685611d1b565b6009546001600160a01b03163314610d7057600080fd5b60008267ffffffffffffffff1611610dbb5760405162461bcd60e51b815260206004820152600e60248201526d416d6f756e74206973207a65726f60901b60448201526064016106ab565b600554600160a01b900460ff16610de757600554610de3906001600160a01b03168284611800565b5050565b60025460405163a9059cbb60e01b81526001600160a01b03838116600483015267ffffffffffffffff851660248301529091169063a9059cbb906044016020604051808303816000875af1158015610e43573d6000803e3d6000fd5b505050506040513d601f19601f82011682018060405250810190610c2c9190611cbf565b6009546000906001600160a01b03163314610ec45760405162461bcd60e51b815260206004820181905260248201527f4f6e6c792072656d697474616e636520636f6e747261637420616c6c6f77656460448201526064016106ab565b60085460095460009167ffffffffffffffff90811691610cc391600160a01b9091041685611d1b565b6009546000906001600160a01b03163314610f4a5760405162461bcd60e51b815260206004820181905260248201527f4f6e6c792072656d697474616e636520636f6e747261637420616c6c6f77656460448201526064016106ab565b60095460085460009167ffffffffffffffff600160a01b909104811691610cc391680100000000000000009091041685611d1b565b6040516001600160a01b038581166024830152848116604483015283166064820152608481018290526000908190819061016790639b23d3d960e01b9060a4016105b9565b6006546001600160a01b03163314610fdb57600080fd5b600880547fffffffffffffffffffffffffffffffff00000000000000000000000000000000166801000000000000000067ffffffffffffffff84811691820267ffffffffffffffff1916929092179185169182179092556040805133815260208101929092528101919091527fefb2934da3f8ddb597604e4312d751eba0847ccefaad5456a9c604e062188ad190606001610bfe565b6004805473ffffffffffffffffffffffffffffffffffffffff19166001600160a01b038416179055600580547fffffffffffffffffffff00ffffffffffffffffffffffffffffffffffffffffff16600160a81b60ff84811682029290921792839055600092041661116b576004546110f39030906001600160a01b031661146e565b905060168114610c2c5760405162461bcd60e51b815260206004820152602a60248201527f436f6e7472616374206173736f63696174696f6e20746f2072656d697420746f60448201527f6b656e206661696c65640000000000000000000000000000000000000000000060648201526084016106ab565b600380546001600160a01b03851673ffffffffffffffffffffffffffffffffffffffff19909116179055505050565b6006546001600160a01b031633146111b157600080fd5b60008167ffffffffffffffff16116111fc5760405162461bcd60e51b815260206004820152600e60248201526d416d6f756e74206973207a65726f60901b60448201526064016106ab565b6004546001600160a01b038381169116148061122557506005546001600160a01b038381169116145b6112715760405162461bcd60e51b815260206004820152601e60248201527f4f6e6c792072656d697420746f6b656e206f722062616e6b20746f6b656e000060448201526064016106ab565b6004546001600160a01b03908116908316036112e357600554600160a81b900460ff166112a357610a5a823383611800565b60035460405163a9059cbb60e01b815233600482015267ffffffffffffffff831660248201526001600160a01b039091169063a9059cbb90604401610aa1565b600554600160a01b900460ff166112ff57610a5a823383611800565b60025460405163a9059cbb60e01b815233600482015267ffffffffffffffff831660248201526001600160a01b039091169063a9059cbb90604401610b6b565b6040516001600160a01b038581166024830152848116604483015283166064820152608481018290526000908190819061016790630aed65f560e11b9060a4016104af565b600854600554600654600780546060946000948594859485948594919367ffffffffffffffff808416946801000000000000000090940416926001600160a01b039182169230929091169086906113da90611ce1565b80601f016020809104026020016040519081016040528092919081815260200182805461140690611ce1565b80156114535780601f1061142857610100808354040283529160200191611453565b820191906000526020600020905b81548152906001019060200180831161143657829003601f168201915b50505050509550955095509550955095509550909192939495565b604080516001600160a01b038481166024830152831660448083019190915282518083039091018152606490910182526020810180516001600160e01b03167f49146bde00000000000000000000000000000000000000000000000000000000179052905160009182918291610167916114e89190611c80565b6000604051808303816000865af19150503d8060008114611525576040519150601f19603f3d011682016040523d82523d6000602084013e61152a565b606091505b50915091508161153b57601561154f565b8080602001905181019061154f9190611c9c565b60030b95945050505050565b6040516001600160a01b038581166024830152848116604483015283166064820152600782900b608482015260009081908190610167907feca36917000000000000000000000000000000000000000000000000000000009060a4016105b9565b6004546001600160a01b03908116908516036116de57600554600160a81b900460ff16611656576004546000906115fe906001600160a01b031685858561155b565b9050601681146116505760405162461bcd60e51b815260206004820152601860248201527f4661696c656420746f207472616e7366657220746f6b656e000000000000000060448201526064016106ab565b506117fa565b6003546040516323b872dd60e01b81526001600160a01b038581166004830152848116602483015267ffffffffffffffff84166044830152909116906323b872dd906064016020604051808303816000875af11580156116ba573d6000803e3d6000fd5b505050506040513d601f19601f820116820180604052508101906116509190611cbf565b6005546001600160a01b03908116908516036117fa57600554600160a01b900460ff1661177257600554600090611720906001600160a01b031685858561155b565b9050601681146116505760405162461bcd60e51b815260206004820152601560248201527f546f6b656e207472616e73666572206661696c6564000000000000000000000060448201526064016106ab565b6002546040516323b872dd60e01b81526001600160a01b038581166004830152848116602483015267ffffffffffffffff84166044830152909116906323b872dd906064016020604051808303816000875af11580156117d6573d6000803e3d6000fd5b505050506040513d601f19601f820116820180604052508101906108be9190611cbf565b50505050565b6004546001600160a01b039081169084160361190657600554600160a81b900460ff166118875760006118358430858561155b565b9050601681146117fa5760405162461bcd60e51b815260206004820152601860248201527f4661696c656420746f207472616e7366657220746f6b656e000000000000000060448201526064016106ab565b60035460405163a9059cbb60e01b815233600482015267ffffffffffffffff831660248201526001600160a01b039091169063a9059cbb906044015b6020604051808303816000875af11580156118e2573d6000803e3d6000fd5b505050506040513d601f19601f820116820180604052508101906117fa9190611cbf565b6005546001600160a01b0390811690841603610c2c57600554600160a01b900460ff1661199a57600554600090611948906001600160a01b031630858561155b565b9050601681146117fa5760405162461bcd60e51b815260206004820152601560248201527f546f6b656e207472616e73666572206661696c6564000000000000000000000060448201526064016106ab565b60025460405163a9059cbb60e01b815233600482015267ffffffffffffffff831660248201526001600160a01b039091169063a9059cbb906044016118c3565b80356001600160a01b03811681146119f157600080fd5b919050565b60008060008060808587031215611a0c57600080fd5b611a15856119da565b9350611a23602086016119da565b9250611a31604086016119da565b9396929550929360600135925050565b803567ffffffffffffffff811681146119f157600080fd5b60008060008060808587031215611a6f57600080fd5b611a78856119da565b9350611a8660208601611a41565b9250611a9460408601611a41565b9150611aa2606086016119da565b905092959194509250565b60005b83811015611ac8578181015183820152602001611ab0565b838111156117fa5750506000910152565b60008151808452611af1816020860160208601611aad565b601f01601f19169290920160200192915050565b602081526000610ccd6020830184611ad9565b60008060408385031215611b2b57600080fd5b611b34836119da565b9150611b4260208401611a41565b90509250929050565b600080600060608486031215611b6057600080fd5b611b69846119da565b9250611b77602085016119da565b9150611b8560408501611a41565b90509250925092565b600060208284031215611ba057600080fd5b610ccd82611a41565b60008060408385031215611bbc57600080fd5b611bc583611a41565b9150611b42602084016119da565b60008060408385031215611be657600080fd5b611b3483611a41565b60008060408385031215611c0257600080fd5b611c0b836119da565b9150602083013560ff81168114611c2157600080fd5b809150509250929050565b60c081526000611c3f60c0830189611ad9565b67ffffffffffffffff97881660208401529590961660408201526001600160a01b039384166060820152918316608083015290911660a09091015292915050565b60008251611c92818460208701611aad565b9190910192915050565b600060208284031215611cae57600080fd5b81518060030b8114610ccd57600080fd5b600060208284031215611cd157600080fd5b81518015158114610ccd57600080fd5b600181811c90821680611cf557607f821691505b602082108103611d1557634e487b7160e01b600052602260045260246000fd5b50919050565b600067ffffffffffffffff80831681851681830481118215151615611d5057634e487b7160e01b600052601160045260246000fd5b02949350505050565b600067ffffffffffffffff80841680611d8257634e487b7160e01b600052601260045260246000fd5b9216919091049291505056fea2646970667358221220323d05cd814bc06dd4858ebd3ff7d47ad95d7d37af7f42b9c5760ae5e6ef95ac64736f6c634300080e0033a26469706673582212202658dba3f3704721906aa9ee21e90ebc1a55124e91cf5ea043b42b35059ce1d664736f6c634300080e0033",
  "immutableReferences": {},
  "source": "// SPDX-License-Identifier: Apache-2.0\npragma solidity >=0.4.22 <0.9.0;\nimport \"@openzeppelin/contracts/token/ERC20/IERC20.sol\";\nimport \"./ERC20Token.sol\";\nimport \"./FXContract.sol\";\nimport \"./RemittanceContract.sol\";\n\ncontract FactoryContract {\n    uint64 MULTIPLIER = 1000000;\n    uint32 NUM_DECIMALS = 6;\n\n    function deployERC20Token(\n        string memory name,\n        string memory symbol\n    ) external returns (address tokenAddress) {\n        ERC20Token token = new ERC20Token(\n            name,\n            symbol,\n            uint8(NUM_DECIMALS),\n            1000000 * MULTIPLIER,\n            msg.sender\n        );\n        tokenAddress = address(token);\n    }\n\n    function deployFXContract(\n        address remittanceAddress,\n        string memory bankName, // Name of the bank\n        address bankAddress, // Bank Admin Address for FX contract\n        address bankTokenAddress, // Bank Token Address\n        uint8 bankTokenType, // 0 = native token, 1 = ERC20\n        uint64 buyRate,\n        uint64 sellRate\n    ) external returns (address fxContractAddress) {\n        FXContract fxContract = new FXContract(\n            remittanceAddress,\n            bankName,\n            bankAddress,\n            bankTokenAddress,\n            bankTokenType,\n            buyRate,\n            sellRate\n        );\n        return address(fxContract);\n    }\n\n    function deployRemittanceContract(\n        address remitTokenAddress,\n        uint8 remitTokenType\n    ) external returns (address remittanceContractAddress) {\n        RemittanceContract remittanceContract = new RemittanceContract(\n            remitTokenAddress,\n            remitTokenType\n        );\n        return address(remittanceContract);\n    }\n}\n",
  "sourcePath": "C:\\Users\\anmol\\Downloads\\cross-border-money-txn\\cross-border-money-txn\\web\\contracts\\FactoryContract.sol",
  "compiler": {
    "name": "solc",
    "version": "0.8.14+commit.80d49f37.Emscripten.clang"
  },
  "schemaVersion": "3.4.16",
  "updatedAt": "2024-01-11T22:45:50.481Z",
  "devdoc": {
    "kind": "dev",
    "methods": {},
    "version": 1
  },
  "userdoc": {
    "kind": "user",
    "methods": {},
    "version": 1
  }
}