{
  "contractName": "FXContract",
  "abi": [
    {
      "inputs": [
        {
          "internalType": "address",
          "name": "_remittanceAddress",
          "type": "address"
        },
        {
          "internalType": "string",
          "name": "_bankName",
          "type": "string"
        },
        {
          "internalType": "address",
          "name": "_bankAddress",
          "type": "address"
        },
        {
          "internalType": "address",
          "name": "_bankTokenAddress",
          "type": "address"
        },
        {
          "internalType": "uint8",
          "name": "_bankTokenType",
          "type": "uint8"
        },
        {
          "internalType": "uint64",
          "name": "_buyRate",
          "type": "uint64"
        },
        {
          "internalType": "uint64",
          "name": "_sellRate",
          "type": "uint64"
        }
      ],
      "stateMutability": "payable",
      "type": "constructor"
    },
    {
      "anonymous": false,
      "inputs": [
        {
          "indexed": false,
          "internalType": "address",
          "name": "sender",
          "type": "address"
        },
        {
          "indexed": false,
          "internalType": "uint64",
          "name": "buyRate",
          "type": "uint64"
        },
        {
          "indexed": false,
          "internalType": "uint64",
          "name": "sellRate",
          "type": "uint64"
        }
      ],
      "name": "FXBuySellRateUpdate",
      "type": "event"
    },
    {
      "anonymous": false,
      "inputs": [
        {
          "indexed": false,
          "internalType": "address",
          "name": "sender",
          "type": "address"
        },
        {
          "indexed": false,
          "internalType": "address",
          "name": "token",
          "type": "address"
        },
        {
          "indexed": false,
          "internalType": "uint64",
          "name": "amount",
          "type": "uint64"
        }
      ],
      "name": "FXDepositWithdraw",
      "type": "event"
    },
    {
      "inputs": [],
      "name": "bankAddress",
      "outputs": [
        {
          "internalType": "address",
          "name": "",
          "type": "address"
        }
      ],
      "stateMutability": "view",
      "type": "function"
    },
    {
      "inputs": [],
      "name": "bankName",
      "outputs": [
        {
          "internalType": "string",
          "name": "",
          "type": "string"
        }
      ],
      "stateMutability": "view",
      "type": "function"
    },
    {
      "inputs": [],
      "name": "bankTokenAddress",
      "outputs": [
        {
          "internalType": "address",
          "name": "",
          "type": "address"
        }
      ],
      "stateMutability": "view",
      "type": "function"
    },
    {
      "inputs": [],
      "name": "bankTokenType",
      "outputs": [
        {
          "internalType": "uint8",
          "name": "",
          "type": "uint8"
        }
      ],
      "stateMutability": "view",
      "type": "function"
    },
    {
      "inputs": [],
      "name": "buyRate",
      "outputs": [
        {
          "internalType": "uint64",
          "name": "",
          "type": "uint64"
        }
      ],
      "stateMutability": "view",
      "type": "function"
    },
    {
      "inputs": [
        {
          "internalType": "address",
          "name": "token",
          "type": "address"
        },
        {
          "internalType": "address",
          "name": "from",
          "type": "address"
        },
        {
          "internalType": "address",
          "name": "to",
          "type": "address"
        },
        {
          "internalType": "uint256",
          "name": "amount",
          "type": "uint256"
        }
      ],
      "name": "delegateTransferFrom",
      "outputs": [
        {
          "internalType": "int64",
          "name": "responseCode",
          "type": "int64"
        }
      ],
      "stateMutability": "nonpayable",
      "type": "function"
    },
    {
      "inputs": [
        {
          "internalType": "address",
          "name": "token",
          "type": "address"
        },
        {
          "internalType": "address",
          "name": "from",
          "type": "address"
        },
        {
          "internalType": "address",
          "name": "to",
          "type": "address"
        },
        {
          "internalType": "uint256",
          "name": "serialNumber",
          "type": "uint256"
        }
      ],
      "name": "delegateTransferFromNFT",
      "outputs": [
        {
          "internalType": "int64",
          "name": "responseCode",
          "type": "int64"
        }
      ],
      "stateMutability": "nonpayable",
      "type": "function"
    },
    {
      "inputs": [],
      "name": "remitTokenAddress",
      "outputs": [
        {
          "internalType": "address",
          "name": "",
          "type": "address"
        }
      ],
      "stateMutability": "view",
      "type": "function"
    },
    {
      "inputs": [],
      "name": "remitTokenType",
      "outputs": [
        {
          "internalType": "uint8",
          "name": "",
          "type": "uint8"
        }
      ],
      "stateMutability": "view",
      "type": "function"
    },
    {
      "inputs": [],
      "name": "remittanceAddress",
      "outputs": [
        {
          "internalType": "address",
          "name": "",
          "type": "address"
        }
      ],
      "stateMutability": "view",
      "type": "function"
    },
    {
      "inputs": [],
      "name": "sellRate",
      "outputs": [
        {
          "internalType": "uint64",
          "name": "",
          "type": "uint64"
        }
      ],
      "stateMutability": "view",
      "type": "function"
    },
    {
      "inputs": [
        {
          "internalType": "address",
          "name": "token",
          "type": "address"
        },
        {
          "internalType": "address",
          "name": "from",
          "type": "address"
        },
        {
          "internalType": "address",
          "name": "to",
          "type": "address"
        },
        {
          "internalType": "uint256",
          "name": "amount",
          "type": "uint256"
        }
      ],
      "name": "transferFrom",
      "outputs": [
        {
          "internalType": "int64",
          "name": "responseCode",
          "type": "int64"
        }
      ],
      "stateMutability": "nonpayable",
      "type": "function"
    },
    {
      "inputs": [
        {
          "internalType": "address",
          "name": "token",
          "type": "address"
        },
        {
          "internalType": "address",
          "name": "from",
          "type": "address"
        },
        {
          "internalType": "address",
          "name": "to",
          "type": "address"
        },
        {
          "internalType": "uint256",
          "name": "serialNumber",
          "type": "uint256"
        }
      ],
      "name": "transferFromNFT",
      "outputs": [
        {
          "internalType": "int64",
          "name": "responseCode",
          "type": "int64"
        }
      ],
      "stateMutability": "nonpayable",
      "type": "function"
    },
    {
      "inputs": [
        {
          "internalType": "address",
          "name": "_remitTokenAddress",
          "type": "address"
        },
        {
          "internalType": "uint8",
          "name": "_remitTokenType",
          "type": "uint8"
        }
      ],
      "name": "setRemitToken",
      "outputs": [],
      "stateMutability": "nonpayable",
      "type": "function"
    },
    {
      "inputs": [],
      "name": "getDetails",
      "outputs": [
        {
          "internalType": "string",
          "name": "_bankName",
          "type": "string"
        },
        {
          "internalType": "uint64",
          "name": "_buyRate",
          "type": "uint64"
        },
        {
          "internalType": "uint64",
          "name": "_sellRate",
          "type": "uint64"
        },
        {
          "internalType": "address",
          "name": "_tokenAddress",
          "type": "address"
        },
        {
          "internalType": "address",
          "name": "_contractAddress",
          "type": "address"
        },
        {
          "internalType": "address",
          "name": "_bankAddress",
          "type": "address"
        }
      ],
      "stateMutability": "view",
      "type": "function"
    },
    {
      "inputs": [
        {
          "internalType": "uint64",
          "name": "_buyRate",
          "type": "uint64"
        },
        {
          "internalType": "uint64",
          "name": "_sellRate",
          "type": "uint64"
        }
      ],
      "name": "setRates",
      "outputs": [],
      "stateMutability": "nonpayable",
      "type": "function"
    },
    {
      "inputs": [],
      "name": "getTokenAddress",
      "outputs": [
        {
          "internalType": "address",
          "name": "",
          "type": "address"
        }
      ],
      "stateMutability": "view",
      "type": "function"
    },
    {
      "inputs": [
        {
          "internalType": "address",
          "name": "userAddress",
          "type": "address"
        },
        {
          "internalType": "uint64",
          "name": "amount",
          "type": "uint64"
        },
        {
          "internalType": "uint64",
          "name": "firstQuote",
          "type": "uint64"
        },
        {
          "internalType": "address",
          "name": "toContract",
          "type": "address"
        }
      ],
      "name": "userDeposit",
      "outputs": [],
      "stateMutability": "nonpayable",
      "type": "function"
    },
    {
      "inputs": [
        {
          "internalType": "uint64",
          "name": "amount",
          "type": "uint64"
        },
        {
          "internalType": "address",
          "name": "toAddress",
          "type": "address"
        }
      ],
      "name": "userWithdraw",
      "outputs": [],
      "stateMutability": "nonpayable",
      "type": "function"
    },
    {
      "inputs": [
        {
          "internalType": "address",
          "name": "tokenAddress",
          "type": "address"
        },
        {
          "internalType": "uint64",
          "name": "amount",
          "type": "uint64"
        }
      ],
      "name": "deposit",
      "outputs": [],
      "stateMutability": "nonpayable",
      "type": "function"
    },
    {
      "inputs": [
        {
          "internalType": "address",
          "name": "tokenAddress",
          "type": "address"
        },
        {
          "internalType": "uint64",
          "name": "amount",
          "type": "uint64"
        }
      ],
      "name": "withdraw",
      "outputs": [],
      "stateMutability": "nonpayable",
      "type": "function"
    },
    {
      "inputs": [
        {
          "internalType": "address",
          "name": "tokenAddress",
          "type": "address"
        },
        {
          "internalType": "address",
          "name": "to",
          "type": "address"
        },
        {
          "internalType": "uint64",
          "name": "amount",
          "type": "uint64"
        }
      ],
      "name": "transfer",
      "outputs": [],
      "stateMutability": "nonpayable",
      "type": "function"
    },
    {
      "inputs": [
        {
          "internalType": "uint64",
          "name": "amount",
          "type": "uint64"
        }
      ],
      "name": "buyQuote",
      "outputs": [
        {
          "internalType": "uint64",
          "name": "quote",
          "type": "uint64"
        }
      ],
      "stateMutability": "view",
      "type": "function"
    },
    {
      "inputs": [
        {
          "internalType": "uint64",
          "name": "amount",
          "type": "uint64"
        }
      ],
      "name": "buyQuoteOther",
      "outputs": [
        {
          "internalType": "uint64",
          "name": "quote",
          "type": "uint64"
        }
      ],
      "stateMutability": "view",
      "type": "function"
    },
    {
      "inputs": [
        {
          "internalType": "uint64",
          "name": "amount",
          "type": "uint64"
        }
      ],
      "name": "sellQuote",
      "outputs": [
        {
          "internalType": "uint64",
          "name": "quote",
          "type": "uint64"
        }
      ],
      "stateMutability": "view",
      "type": "function"
    },
    {
      "inputs": [
        {
          "internalType": "uint64",
          "name": "amount",
          "type": "uint64"
        }
      ],
      "name": "sellQuoteOther",
      "outputs": [
        {
          "internalType": "uint64",
          "name": "quote",
          "type": "uint64"
        }
      ],
      "stateMutability": "view",
      "type": "function"
    },
    {
      "inputs": [],
      "name": "getBuyRate",
      "outputs": [
        {
          "internalType": "uint64",
          "name": "",
          "type": "uint64"
        }
      ],
      "stateMutability": "view",
      "type": "function"
    },
    {
      "inputs": [],
      "name": "getSellRate",
      "outputs": [
        {
          "internalType": "uint64",
          "name": "",
          "type": "uint64"
        }
      ],
      "stateMutability": "view",
      "type": "function"
    },
    {
      "inputs": [],
      "name": "getBankAddress",
      "outputs": [
        {
          "internalType": "address",
          "name": "",
          "type": "address"
        }
      ],
      "stateMutability": "view",
      "type": "function"
    }
  ],
  "bytecode": "0x6080604081905260098054600160a01b600160e01b031916613d0960a61b1790556200245a388190039081908339810160408190526200003f91620004d5565b600160208181527fa6eef7e35abe7026729641147f7915573c7e97b47efa546f5f6e3230263bcb499190915560027fcc69885fda6bcc1a4ace058b4a62bf5e179ea78fd58a1ccd71c22cc9b688792f5560047fd9d16d34ffb15ba3a3d852f0d403e2ce1d691fb54de27ac87cd2f993f3ec330f5560087f7dfe757ecd65cbd7922a9c0161e935dd7fdbcc0e999689c7d31633896b1fc60b5560107fedc95719e9a3b28dd8e80877cb5880a9be7de1a13fc8b05e7999683b6b567643557fe2689cd4a84e23ad2f564004f1c9013e9589d260bde6380aba3ca7e09e4df40c819055600660005260407f8f331abe73332f95a25873e8b430885974c0409691f89d643119a11623a7924a55600980546001600160a01b0319166001600160a01b038a1617905586516200017791600791908901906200039f565b50600680546001600160a01b038088166001600160a01b0319909216919091179091556005805460ff808716600160a01b9081026001600160a81b0319909316948916949094179190911791829055600880546001600160401b0386811668010000000000000000026001600160801b031990921690881617179055919004166200029a5760006200022a30600560009054906101000a90046001600160a01b0316620002c360201b6200146e1760201c565b905060168114620002935760405162461bcd60e51b815260206004820152602960248201527f436f6e7472616374206173736f63696174696f6e20746f20737461626c65636f6044820152681a5b8819985a5b195960ba1b606482015260840160405180910390fd5b50620002b6565b600280546001600160a01b0319166001600160a01b0386161790555b5050505050505062000686565b604080516001600160a01b038481166024830152831660448083019190915282518083039091018152606490910182526020810180516001600160e01b031663248a35ef60e11b1790529051600091829182916101679162000326919062000600565b6000604051808303816000865af19150503d806000811462000365576040519150601f19603f3d011682016040523d82523d6000602084013e6200036a565b606091505b5091509150816200037d57601562000393565b808060200190518101906200039391906200061e565b60030b95945050505050565b828054620003ad906200064a565b90600052602060002090601f016020900481019282620003d157600085556200041c565b82601f10620003ec57805160ff19168380011785556200041c565b828001600101855582156200041c579182015b828111156200041c578251825591602001919060010190620003ff565b506200042a9291506200042e565b5090565b5b808211156200042a57600081556001016200042f565b80516001600160a01b03811681146200045d57600080fd5b919050565b634e487b7160e01b600052604160045260246000fd5b60005b83811015620004955781810151838201526020016200047b565b83811115620004a5576000848401525b50505050565b805160ff811681146200045d57600080fd5b80516001600160401b03811681146200045d57600080fd5b600080600080600080600060e0888a031215620004f157600080fd5b620004fc8862000445565b60208901519097506001600160401b03808211156200051a57600080fd5b818a0191508a601f8301126200052f57600080fd5b81518181111562000544576200054462000462565b604051601f8201601f19908116603f011681019083821181831017156200056f576200056f62000462565b816040528281528d60208487010111156200058957600080fd5b6200059c83602083016020880162000478565b809a505050505050620005b26040890162000445565b9450620005c26060890162000445565b9350620005d260808901620004ab565b9250620005e260a08901620004bd565b9150620005f260c08901620004bd565b905092959891949750929550565b600082516200061481846020870162000478565b9190910192915050565b6000602082840312156200063157600080fd5b81518060030b81146200064357600080fd5b9392505050565b600181811c908216806200065f57607f821691505b6020821081036200068057634e487b7160e01b600052602260045260246000fd5b50919050565b611dc480620006966000396000f3fe608060405234801561001057600080fd5b50600436106101ce5760003560e01c80637822ed4911610104578063aa5f1373116100a2578063d6dad06011610071578063d6dad0601461041a578063eac6f3fe1461042d578063fbbf93a014610440578063fc37987b1461045a57600080fd5b8063aa5f1373146103cd578063b453ee40146103e0578063c7b6eab4146103f3578063d2d7bd291461040757600080fd5b806397bdfcfa116100de57806397bdfcfa1461038157806398370677146103945780639b23d3d9146103a7578063a3630643146103ba57600080fd5b80637822ed491461034857806388a4c5951461035b5780638d3ecfae1461036e57600080fd5b806329664ac6116101715780635f00af331161014b5780635f00af33146102f15780636217229b1461030457806366f780e91461032457806374f5cad71461033557600080fd5b806329664ac6146102b95780632a308b3a146102cc5780633d35d7ba146102df57600080fd5b806315dacbea116101ad57806315dacbea14610249578063226fd9eb1461025c5780632316d3311461028f57806327d35801146102a457600080fd5b806276498b146101d357806310fe9ae8146101fe57806311e1fc0714610223575b600080fd5b6005546101e790600160a81b900460ff1681565b60405160ff90911681526020015b60405180910390f35b6005546001600160a01b03165b6040516001600160a01b0390911681526020016101f5565b6102366102313660046119f6565b61046e565b60405160079190910b81526020016101f5565b6102366102573660046119f6565b610578565b60085468010000000000000000900467ffffffffffffffff165b60405167ffffffffffffffff90911681526020016101f5565b6102a261029d366004611a59565b61064c565b005b6102ac6108c5565b6040516101f59190611b05565b6102a26102c7366004611b18565b610953565b6102a26102da366004611b4b565b610c0a565b60085467ffffffffffffffff16610276565b6102766102ff366004611b8e565b610c31565b6008546102769068010000000000000000900467ffffffffffffffff1681565b6006546001600160a01b031661020b565b610276610343366004611b8e565b610cd4565b60065461020b906001600160a01b031681565b6102a2610369366004611ba9565b610d59565b60055461020b906001600160a01b031681565b61027661038f366004611b8e565b610e67565b6102766103a2366004611b8e565b610eed565b6102366103b53660046119f6565b610f7f565b60045461020b906001600160a01b031681565b6102a26103db366004611bd3565b610fc4565b6102a26103ee366004611bef565b611071565b6005546101e790600160a01b900460ff1681565b60095461020b906001600160a01b031681565b6102a2610428366004611b18565b61119a565b61023661043b3660046119f6565b61133f565b610448611384565b6040516101f596959493929190611c2c565b6008546102769067ffffffffffffffff1681565b6040516001600160a01b038581166024830152848116604483015283166064820152608481018290526000908190819061016790639b23d3d960e01b9060a4015b60408051601f198184030181529181526020820180516001600160e01b03167fffffffff000000000000000000000000000000000000000000000000000000009094169390931790925290516105059190611c80565b600060405180830381855af49150503d8060008114610540576040519150601f19603f3d011682016040523d82523d6000602084013e610545565b606091505b50915091508161055657601561056a565b8080602001905181019061056a9190611c9c565b60030b979650505050505050565b6040516001600160a01b038581166024830152848116604483015283166064820152608481018290526000908190819061016790630aed65f560e11b9060a4015b60408051601f198184030181529181526020820180516001600160e01b03167fffffffff0000000000000000000000000000000000000000000000000000000090941693909317909252905161060f9190611c80565b6000604051808303816000865af19150503d8060008114610540576040519150601f19603f3d011682016040523d82523d6000602084013e610545565b6009546001600160a01b0316331461066357600080fd5b6000808467ffffffffffffffff16116106b45760405162461bcd60e51b815260206004820152600e60248201526d416d6f756e74206973207a65726f60901b60448201526064015b60405180910390fd5b600554600160a01b900460ff16610734576005546106dd906001600160a01b031686308761155b565b90506016811461072f5760405162461bcd60e51b815260206004820152601e60248201527f4661696c656420746f207472616e7366657220737461626c6520636f696e000060448201526064016106ab565b6107bc565b6002546040516323b872dd60e01b81526001600160a01b03878116600483015230602483015267ffffffffffffffff87166044830152909116906323b872dd906064016020604051808303816000875af1158015610796573d6000803e3d6000fd5b505050506040513d601f19601f820116820180604052508101906107ba9190611cbf565b505b600554600160a81b900460ff1661083c576004546107e5906001600160a01b031630848661155b565b9050601681146108375760405162461bcd60e51b815260206004820152601e60248201527f4661696c656420746f207472616e736665722072656d697420746f6b656e000060448201526064016106ab565b6108be565b60035460405163a9059cbb60e01b81526001600160a01b03848116600483015267ffffffffffffffff861660248301529091169063a9059cbb906044016020604051808303816000875af1158015610898573d6000803e3d6000fd5b505050506040513d601f19601f820116820180604052508101906108bc9190611cbf565b505b5050505050565b600780546108d290611ce1565b80601f01602080910402602001604051908101604052809291908181526020018280546108fe90611ce1565b801561094b5780601f106109205761010080835404028352916020019161094b565b820191906000526020600020905b81548152906001019060200180831161092e57829003601f168201915b505050505081565b6006546001600160a01b0316331461096a57600080fd5b60008167ffffffffffffffff16116109b55760405162461bcd60e51b815260206004820152600e60248201526d416d6f756e74206973207a65726f60901b60448201526064016106ab565b6004546001600160a01b03838116911614806109cf575060015b610a1b5760405162461bcd60e51b815260206004820181905260248201527f4f6e6c792072656d6974206f722062616e6b20746f6b656e20616c6c6f77656460448201526064016106ab565b6004546001600160a01b0390811690831603610aea57600554600160a81b900460ff16610a5f57600454610a5a906001600160a01b03163330846115bc565b610bb0565b6003546040516323b872dd60e01b815233600482015230602482015267ffffffffffffffff831660448201526001600160a01b03909116906323b872dd906064015b6020604051808303816000875af1158015610ac0573d6000803e3d6000fd5b505050506040513d601f19601f82011682018060405250810190610ae49190611cbf565b50610bb0565b6005546001600160a01b0390811690831603610bb057600554600160a01b900460ff16610b2957600554610a5a906001600160a01b03163330846115bc565b6002546040516323b872dd60e01b815233600482015230602482015267ffffffffffffffff831660448201526001600160a01b03909116906323b872dd906064015b6020604051808303816000875af1158015610b8a573d6000803e3d6000fd5b505050506040513d601f19601f82011682018060405250810190610bae9190611cbf565b505b604080513381526001600160a01b038416602082015267ffffffffffffffff8316918101919091527fb868fea9333b79a8e8e6c334c1d5775693b25dde20c73dc63d4272aeda80a88f906060015b60405180910390a15050565b6009546001600160a01b03163314610c2157600080fd5b610c2c838383611800565b505050565b6009546000906001600160a01b03163314610c8e5760405162461bcd60e51b815260206004820181905260248201527f4f6e6c792072656d697474616e636520636f6e747261637420616c6c6f77656460448201526064016106ab565b60085460095460009167ffffffffffffffff68010000000000000000909104811691610cc391600160a01b9091041685611d1b565b610ccd9190611d59565b9392505050565b6009546000906001600160a01b03163314610d315760405162461bcd60e51b815260206004820181905260248201527f4f6e6c792072656d697474616e636520636f6e747261637420616c6c6f77656460448201526064016106ab565b60095460085460009167ffffffffffffffff600160a01b909104811691610cc3911685611d1b565b6009546001600160a01b03163314610d7057600080fd5b60008267ffffffffffffffff1611610dbb5760405162461bcd60e51b815260206004820152600e60248201526d416d6f756e74206973207a65726f60901b60448201526064016106ab565b600554600160a01b900460ff16610de757600554610de3906001600160a01b03168284611800565b5050565b60025460405163a9059cbb60e01b81526001600160a01b03838116600483015267ffffffffffffffff851660248301529091169063a9059cbb906044016020604051808303816000875af1158015610e43573d6000803e3d6000fd5b505050506040513d601f19601f82011682018060405250810190610c2c9190611cbf565b6009546000906001600160a01b03163314610ec45760405162461bcd60e51b815260206004820181905260248201527f4f6e6c792072656d697474616e636520636f6e747261637420616c6c6f77656460448201526064016106ab565b60085460095460009167ffffffffffffffff90811691610cc391600160a01b9091041685611d1b565b6009546000906001600160a01b03163314610f4a5760405162461bcd60e51b815260206004820181905260248201527f4f6e6c792072656d697474616e636520636f6e747261637420616c6c6f77656460448201526064016106ab565b60095460085460009167ffffffffffffffff600160a01b909104811691610cc391680100000000000000009091041685611d1b565b6040516001600160a01b038581166024830152848116604483015283166064820152608481018290526000908190819061016790639b23d3d960e01b9060a4016105b9565b6006546001600160a01b03163314610fdb57600080fd5b600880547fffffffffffffffffffffffffffffffff00000000000000000000000000000000166801000000000000000067ffffffffffffffff84811691820267ffffffffffffffff1916929092179185169182179092556040805133815260208101929092528101919091527fefb2934da3f8ddb597604e4312d751eba0847ccefaad5456a9c604e062188ad190606001610bfe565b6004805473ffffffffffffffffffffffffffffffffffffffff19166001600160a01b038416179055600580547fffffffffffffffffffff00ffffffffffffffffffffffffffffffffffffffffff16600160a81b60ff84811682029290921792839055600092041661116b576004546110f39030906001600160a01b031661146e565b905060168114610c2c5760405162461bcd60e51b815260206004820152602a60248201527f436f6e7472616374206173736f63696174696f6e20746f2072656d697420746f60448201527f6b656e206661696c65640000000000000000000000000000000000000000000060648201526084016106ab565b600380546001600160a01b03851673ffffffffffffffffffffffffffffffffffffffff19909116179055505050565b6006546001600160a01b031633146111b157600080fd5b60008167ffffffffffffffff16116111fc5760405162461bcd60e51b815260206004820152600e60248201526d416d6f756e74206973207a65726f60901b60448201526064016106ab565b6004546001600160a01b038381169116148061122557506005546001600160a01b038381169116145b6112715760405162461bcd60e51b815260206004820152601e60248201527f4f6e6c792072656d697420746f6b656e206f722062616e6b20746f6b656e000060448201526064016106ab565b6004546001600160a01b03908116908316036112e357600554600160a81b900460ff166112a357610a5a823383611800565b60035460405163a9059cbb60e01b815233600482015267ffffffffffffffff831660248201526001600160a01b039091169063a9059cbb90604401610aa1565b600554600160a01b900460ff166112ff57610a5a823383611800565b60025460405163a9059cbb60e01b815233600482015267ffffffffffffffff831660248201526001600160a01b039091169063a9059cbb90604401610b6b565b6040516001600160a01b038581166024830152848116604483015283166064820152608481018290526000908190819061016790630aed65f560e11b9060a4016104af565b600854600554600654600780546060946000948594859485948594919367ffffffffffffffff808416946801000000000000000090940416926001600160a01b039182169230929091169086906113da90611ce1565b80601f016020809104026020016040519081016040528092919081815260200182805461140690611ce1565b80156114535780601f1061142857610100808354040283529160200191611453565b820191906000526020600020905b81548152906001019060200180831161143657829003601f168201915b50505050509550955095509550955095509550909192939495565b604080516001600160a01b038481166024830152831660448083019190915282518083039091018152606490910182526020810180516001600160e01b03167f49146bde00000000000000000000000000000000000000000000000000000000179052905160009182918291610167916114e89190611c80565b6000604051808303816000865af19150503d8060008114611525576040519150601f19603f3d011682016040523d82523d6000602084013e61152a565b606091505b50915091508161153b57601561154f565b8080602001905181019061154f9190611c9c565b60030b95945050505050565b6040516001600160a01b038581166024830152848116604483015283166064820152600782900b608482015260009081908190610167907feca36917000000000000000000000000000000000000000000000000000000009060a4016105b9565b6004546001600160a01b03908116908516036116de57600554600160a81b900460ff16611656576004546000906115fe906001600160a01b031685858561155b565b9050601681146116505760405162461bcd60e51b815260206004820152601860248201527f4661696c656420746f207472616e7366657220746f6b656e000000000000000060448201526064016106ab565b506117fa565b6003546040516323b872dd60e01b81526001600160a01b038581166004830152848116602483015267ffffffffffffffff84166044830152909116906323b872dd906064016020604051808303816000875af11580156116ba573d6000803e3d6000fd5b505050506040513d601f19601f820116820180604052508101906116509190611cbf565b6005546001600160a01b03908116908516036117fa57600554600160a01b900460ff1661177257600554600090611720906001600160a01b031685858561155b565b9050601681146116505760405162461bcd60e51b815260206004820152601560248201527f546f6b656e207472616e73666572206661696c6564000000000000000000000060448201526064016106ab565b6002546040516323b872dd60e01b81526001600160a01b038581166004830152848116602483015267ffffffffffffffff84166044830152909116906323b872dd906064016020604051808303816000875af11580156117d6573d6000803e3d6000fd5b505050506040513d601f19601f820116820180604052508101906108be9190611cbf565b50505050565b6004546001600160a01b039081169084160361190657600554600160a81b900460ff166118875760006118358430858561155b565b9050601681146117fa5760405162461bcd60e51b815260206004820152601860248201527f4661696c656420746f207472616e7366657220746f6b656e000000000000000060448201526064016106ab565b60035460405163a9059cbb60e01b815233600482015267ffffffffffffffff831660248201526001600160a01b039091169063a9059cbb906044015b6020604051808303816000875af11580156118e2573d6000803e3d6000fd5b505050506040513d601f19601f820116820180604052508101906117fa9190611cbf565b6005546001600160a01b0390811690841603610c2c57600554600160a01b900460ff1661199a57600554600090611948906001600160a01b031630858561155b565b9050601681146117fa5760405162461bcd60e51b815260206004820152601560248201527f546f6b656e207472616e73666572206661696c6564000000000000000000000060448201526064016106ab565b60025460405163a9059cbb60e01b815233600482015267ffffffffffffffff831660248201526001600160a01b039091169063a9059cbb906044016118c3565b80356001600160a01b03811681146119f157600080fd5b919050565b60008060008060808587031215611a0c57600080fd5b611a15856119da565b9350611a23602086016119da565b9250611a31604086016119da565b9396929550929360600135925050565b803567ffffffffffffffff811681146119f157600080fd5b60008060008060808587031215611a6f57600080fd5b611a78856119da565b9350611a8660208601611a41565b9250611a9460408601611a41565b9150611aa2606086016119da565b905092959194509250565b60005b83811015611ac8578181015183820152602001611ab0565b838111156117fa5750506000910152565b60008151808452611af1816020860160208601611aad565b601f01601f19169290920160200192915050565b602081526000610ccd6020830184611ad9565b60008060408385031215611b2b57600080fd5b611b34836119da565b9150611b4260208401611a41565b90509250929050565b600080600060608486031215611b6057600080fd5b611b69846119da565b9250611b77602085016119da565b9150611b8560408501611a41565b90509250925092565b600060208284031215611ba057600080fd5b610ccd82611a41565b60008060408385031215611bbc57600080fd5b611bc583611a41565b9150611b42602084016119da565b60008060408385031215611be657600080fd5b611b3483611a41565b60008060408385031215611c0257600080fd5b611c0b836119da565b9150602083013560ff81168114611c2157600080fd5b809150509250929050565b60c081526000611c3f60c0830189611ad9565b67ffffffffffffffff97881660208401529590961660408201526001600160a01b039384166060820152918316608083015290911660a09091015292915050565b60008251611c92818460208701611aad565b9190910192915050565b600060208284031215611cae57600080fd5b81518060030b8114610ccd57600080fd5b600060208284031215611cd157600080fd5b81518015158114610ccd57600080fd5b600181811c90821680611cf557607f821691505b602082108103611d1557634e487b7160e01b600052602260045260246000fd5b50919050565b600067ffffffffffffffff80831681851681830481118215151615611d5057634e487b7160e01b600052601160045260246000fd5b02949350505050565b600067ffffffffffffffff80841680611d8257634e487b7160e01b600052601260045260246000fd5b9216919091049291505056fea2646970667358221220323d05cd814bc06dd4858ebd3ff7d47ad95d7d37af7f42b9c5760ae5e6ef95ac64736f6c634300080e0033",
  "immutableReferences": {},
  "source": "// SPDX-License-Identifier: Apache-2.0\npragma solidity >=0.4.22 <0.9.0;\nimport \"./hts-precompile/IHederaTokenService.sol\";\nimport \"./hts-precompile/HederaResponseCodes.sol\";\nimport \"./hts-precompile/KeyHelper.sol\";\nimport \"./hts-precompile/ExpiryHelper.sol\";\nimport \"@openzeppelin/contracts/token/ERC20/IERC20.sol\";\nimport \"./ERC20Token.sol\";\nimport \"./TokenTypes.sol\";\n\ncontract FXContract is HederaTokenService, ExpiryHelper, KeyHelper {\n    IERC20 bankTokenERC20;\n    IERC20 remitTokenERC20;\n\n    address public remitTokenAddress;\n    address public bankTokenAddress;\n    uint8 public bankTokenType;\n    uint8 public remitTokenType;\n\n    address public bankAddress;\n    string public bankName;\n    uint64 public buyRate;\n    uint64 public sellRate;\n    address public remittanceAddress;\n\n    event FXDepositWithdraw(address sender, address token, uint64 amount);\n    event FXBuySellRateUpdate(address sender, uint64 buyRate, uint64 sellRate);\n\n    uint64 MULTIPLIER = 1000000;\n\n    modifier onlyBankAddress() {\n        require(msg.sender == bankAddress);\n        _;\n    }\n\n    modifier onlyRemittanceAddress() {\n        require(msg.sender == remittanceAddress);\n        _;\n    }\n\n    constructor(\n        address _remittanceAddress,\n        string memory _bankName,\n        address _bankAddress,\n        address _bankTokenAddress,\n        uint8 _bankTokenType,\n        uint64 _buyRate,\n        uint64 _sellRate\n    ) payable {\n        remittanceAddress = _remittanceAddress;\n        bankName = _bankName;\n        bankAddress = _bankAddress;\n        bankTokenAddress = _bankTokenAddress;\n        bankTokenType = _bankTokenType;\n        buyRate = _buyRate;\n        sellRate = _sellRate;\n\n        if (bankTokenType == TokenTypes.NATIVE_TOKEN) {\n            // Associate bank token to this contract\n            int responseCode = HederaTokenService.associateToken(\n                address(this),\n                bankTokenAddress\n            );\n            require(\n                responseCode == HederaResponseCodes.SUCCESS,\n                \"Contract association to stablecoin failed\"\n            );\n        } else {\n            bankTokenERC20 = IERC20(_bankTokenAddress);\n        }\n    }\n\n    function setRemitToken(\n        address _remitTokenAddress,\n        uint8 _remitTokenType\n    ) external {\n        remitTokenAddress = _remitTokenAddress;\n        remitTokenType = _remitTokenType;\n        int responseCode;\n        if (remitTokenType == TokenTypes.NATIVE_TOKEN) {\n            responseCode = HederaTokenService.associateToken(\n                address(this),\n                remitTokenAddress\n            );\n            require(\n                responseCode == HederaResponseCodes.SUCCESS,\n                \"Contract association to remit token failed\"\n            );\n        } else {\n            remitTokenERC20 = IERC20(_remitTokenAddress);\n        }\n    }\n\n    function getDetails()\n        external\n        view\n        returns (\n            string memory _bankName,\n            uint64 _buyRate,\n            uint64 _sellRate,\n            address _tokenAddress,\n            address _contractAddress,\n            address _bankAddress\n        )\n    {\n        return (\n            bankName,\n            buyRate,\n            sellRate,\n            bankTokenAddress,\n            address(this),\n            bankAddress\n        );\n    }\n\n    function setRates(\n        uint64 _buyRate,\n        uint64 _sellRate\n    ) external onlyBankAddress {\n        sellRate = _sellRate;\n        buyRate = _buyRate;\n        emit FXBuySellRateUpdate(msg.sender, _buyRate, _sellRate);\n    }\n\n    function getTokenAddress() external view returns (address) {\n        return bankTokenAddress;\n    }\n\n    function userDeposit(\n        address userAddress,\n        uint64 amount,\n        uint64 firstQuote,\n        address toContract\n    ) external onlyRemittanceAddress {\n        // used to deposit remittance or stablecoin tokens to the Bank\n        // if the stablecoin Token is ERC20 use transferFrom, else use native token api\n        int responseCode = 0;\n\n        require(amount > 0, \"Amount is zero\");\n        // can only transfer stable coin if native (if not, use standard ERC20 methods)\n        if (bankTokenType == TokenTypes.NATIVE_TOKEN) {\n            responseCode = HederaTokenService.transferToken(\n                bankTokenAddress,\n                userAddress,\n                address(this),\n                int64(amount)\n            );\n            require(\n                responseCode == HederaResponseCodes.SUCCESS,\n                \"Failed to transfer stable coin\"\n            );\n        } else {\n            // user has to approve the amount to transfer to this contract first\n            bankTokenERC20.transferFrom(\n                userAddress,\n                address(this),\n                uint256(amount)\n            );\n        }\n\n        if (remitTokenType == TokenTypes.NATIVE_TOKEN) {\n            responseCode = HederaTokenService.transferToken(\n                remitTokenAddress,\n                address(this),\n                toContract,\n                int64(firstQuote)\n            );\n            require(\n                responseCode == HederaResponseCodes.SUCCESS,\n                \"Failed to transfer remit token\"\n            );\n        } else {\n            remitTokenERC20.transfer(toContract, firstQuote);\n        }\n    }\n\n    function userWithdraw(\n        uint64 amount,\n        address toAddress\n    ) external onlyRemittanceAddress {\n        require(amount > 0, \"Amount is zero\");\n        // can only transfer stable coin if native (if not, use standard ERC20 methods)\n        if (bankTokenType == TokenTypes.NATIVE_TOKEN) {\n            _transfer(bankTokenAddress, toAddress, amount);\n        } else {\n            // user has to approve the amount to transfer to this contract first\n            bankTokenERC20.transfer(toAddress, uint256(amount));\n        }\n    }\n\n    function deposit(\n        address tokenAddress,\n        uint64 amount\n    ) external onlyBankAddress {\n        // used to deposit remittance or stablecoin tokens to the FXContract\n        // if the stablecoin Token is ERC20, use standard ERC20 Transfer method to send to the FXContract\n\n        require(amount > 0, \"Amount is zero\");\n        // can only deposit remitToken or stableCoin\n        require(\n            tokenAddress == remitTokenAddress || tokenAddress == tokenAddress,\n            \"Only remit or bank token allowed\"\n        );\n        // deposit remit token\n        if (tokenAddress == remitTokenAddress) {\n            if (remitTokenType == TokenTypes.NATIVE_TOKEN) {\n                _transferFrom(\n                    remitTokenAddress,\n                    msg.sender,\n                    address(this),\n                    amount\n                );\n            } else {\n                remitTokenERC20.transferFrom(msg.sender, address(this), amount);\n            }\n            // deposit bank token\n        } else if (tokenAddress == bankTokenAddress) {\n            if (bankTokenType == TokenTypes.NATIVE_TOKEN) {\n                _transferFrom(\n                    bankTokenAddress,\n                    msg.sender,\n                    address(this),\n                    amount\n                );\n            } else {\n                bankTokenERC20.transferFrom(msg.sender, address(this), amount);\n            }\n        }\n\n        emit FXDepositWithdraw(msg.sender, tokenAddress, amount);\n    }\n\n    function withdraw(\n        address tokenAddress,\n        uint64 amount\n    ) external onlyBankAddress {\n        require(amount > 0, \"Amount is zero\");\n        // can only withdraw remitToken or stableCoin\n        require(\n            tokenAddress == remitTokenAddress ||\n                tokenAddress == bankTokenAddress,\n            \"Only remit token or bank token\"\n        );\n\n        // withdraw remit token\n        if (tokenAddress == remitTokenAddress) {\n            if (remitTokenType == TokenTypes.NATIVE_TOKEN) {\n                _transfer(tokenAddress, msg.sender, amount);\n            } else {\n                remitTokenERC20.transfer(msg.sender, uint256(amount));\n            }\n        } else {\n            if (bankTokenType == TokenTypes.NATIVE_TOKEN) {\n                _transfer(tokenAddress, msg.sender, amount);\n            } else {\n                bankTokenERC20.transfer(msg.sender, uint256(amount));\n            }\n        }\n\n        emit FXDepositWithdraw(msg.sender, tokenAddress, amount);\n    }\n\n    // foreign exchange can only be invoked by factory contract\n    function transfer(\n        address tokenAddress,\n        address to,\n        uint64 amount\n    ) public onlyRemittanceAddress {\n        // we're going from remittance to our own token -> buying our own token\n        // e.g. buying our own token from USDC\n        // Native tokens support ERC20 functions\n        _transfer(tokenAddress, to, amount);\n    }\n\n    function _transferFrom(\n        address tokenAddress,\n        address from,\n        address to,\n        uint64 amount\n    ) private {\n        if (tokenAddress == remitTokenAddress) {\n            if (remitTokenType == TokenTypes.NATIVE_TOKEN) {\n                int responseCode = HederaTokenService.transferToken(\n                    remitTokenAddress,\n                    from,\n                    to,\n                    int64(amount)\n                );\n                require(\n                    responseCode == HederaResponseCodes.SUCCESS,\n                    \"Failed to transfer token\"\n                );\n            } else {\n                remitTokenERC20.transferFrom(from, to, amount);\n            }\n            // deposit bank token\n        } else if (tokenAddress == bankTokenAddress) {\n            if (bankTokenType == TokenTypes.NATIVE_TOKEN) {\n                int responseCode = HederaTokenService.transferToken(\n                    bankTokenAddress,\n                    from,\n                    to,\n                    int64(amount)\n                );\n                require(\n                    responseCode == HederaResponseCodes.SUCCESS,\n                    \"Token transfer failed\"\n                );\n            } else {\n                bankTokenERC20.transferFrom(from, to, amount);\n            }\n        }\n    }\n\n    function _transfer(\n        address tokenAddress,\n        address to,\n        uint64 amount\n    ) private {\n        if (tokenAddress == remitTokenAddress) {\n            if (remitTokenType == TokenTypes.NATIVE_TOKEN) {\n                int responseCode = HederaTokenService.transferToken(\n                    tokenAddress,\n                    address(this),\n                    to,\n                    int64(amount)\n                );\n                require(\n                    responseCode == HederaResponseCodes.SUCCESS,\n                    \"Failed to transfer token\"\n                );\n            } else {\n                remitTokenERC20.transfer(msg.sender, amount);\n            }\n            // deposit bank token\n        } else if (tokenAddress == bankTokenAddress) {\n            if (bankTokenType == TokenTypes.NATIVE_TOKEN) {\n                int responseCode = HederaTokenService.transferToken(\n                    bankTokenAddress,\n                    address(this),\n                    to,\n                    int64(amount)\n                );\n                require(\n                    responseCode == HederaResponseCodes.SUCCESS,\n                    \"Token transfer failed\"\n                );\n            } else {\n                bankTokenERC20.transfer(msg.sender, amount);\n            }\n        }\n    }\n\n    // foreign exchange can only be invoked by factory contract\n    function buyQuote(uint64 amount) public view returns (uint64 quote) {\n        require(\n            msg.sender == remittanceAddress,\n            \"Only remittance contract allowed\"\n        );\n        // we're going from remittance to our own token -> buying our own token\n        // e.g. buying our own token from USDC\n        uint64 result = (amount * buyRate) / MULTIPLIER;\n        return uint64(result);\n    }\n\n    function buyQuoteOther(uint64 amount) public view returns (uint64 quote) {\n        require(\n            msg.sender == remittanceAddress,\n            \"Only remittance contract allowed\"\n        );\n        // we're going from remittance to our own token -> buying our own token\n        // e.g. buying our own token from USDC\n        uint64 result = (amount * MULTIPLIER) / buyRate;\n        return uint64(result);\n    }\n\n    function sellQuote(uint64 amount) public view returns (uint64 quote) {\n        require(\n            msg.sender == remittanceAddress,\n            \"Only remittance contract allowed\"\n        );\n        // we're going from our own to remittance -> selling our own token\n        // e.g. selling our own token for USDC\n        uint64 result = (amount * MULTIPLIER) / sellRate;\n        return uint64(result);\n    }\n\n    function sellQuoteOther(uint64 amount) public view returns (uint64 quote) {\n        require(\n            msg.sender == remittanceAddress,\n            \"Only remittance contract allowed\"\n        );\n        // we're going from our own to remittance -> selling our own token\n        // e.g. selling our own token for USDC\n        uint64 result = (amount * sellRate) / MULTIPLIER;\n        return uint64(result);\n    }\n\n    function getBuyRate() public view returns (uint64) {\n        return buyRate;\n    }\n\n    function getSellRate() public view returns (uint64) {\n        return sellRate;\n    }\n\n    function getBankAddress() public view returns (address) {\n        return bankAddress;\n    }\n}\n",
  "sourcePath": "C:\\Users\\anmol\\Downloads\\cross-border-money-txn\\cross-border-money-txn\\web\\contracts\\FXContract.sol",
  "compiler": {
    "name": "solc",
    "version": "0.8.14+commit.80d49f37.Emscripten.clang"
  },
  "schemaVersion": "3.4.16",
  "updatedAt": "2024-01-11T22:45:50.472Z",
  "devdoc": {
    "kind": "dev",
    "methods": {
      "delegateTransferFrom(address,address,address,uint256)": {
        "params": {
          "amount": "The amount of tokens to transfer from `from` to `to`",
          "from": "The account address of the owner of the token, on the behalf of which to transfer `amount` tokens",
          "to": "The account address of the receiver of the `amount` tokens",
          "token": "The address of the fungible Hedera token to transfer"
        },
        "returns": {
          "responseCode": "The response code for the status of the request. SUCCESS is 22."
        }
      },
      "delegateTransferFromNFT(address,address,address,uint256)": {
        "params": {
          "from": "The account address of the owner of `serialNumber` of `token`",
          "serialNumber": "The NFT serial number to transfer",
          "to": "The account address of the receiver of `serialNumber`",
          "token": "The address of the non-fungible Hedera token to transfer"
        },
        "returns": {
          "responseCode": "The response code for the status of the request. SUCCESS is 22."
        }
      },
      "transferFrom(address,address,address,uint256)": {
        "params": {
          "amount": "The amount of tokens to transfer from `from` to `to`",
          "from": "The account address of the owner of the token, on the behalf of which to transfer `amount` tokens",
          "to": "The account address of the receiver of the `amount` tokens",
          "token": "The address of the fungible Hedera token to transfer"
        },
        "returns": {
          "responseCode": "The response code for the status of the request. SUCCESS is 22."
        }
      },
      "transferFromNFT(address,address,address,uint256)": {
        "params": {
          "from": "The account address of the owner of `serialNumber` of `token`",
          "serialNumber": "The NFT serial number to transfer",
          "to": "The account address of the receiver of `serialNumber`",
          "token": "The address of the non-fungible Hedera token to transfer"
        },
        "returns": {
          "responseCode": "The response code for the status of the request. SUCCESS is 22."
        }
      }
    },
    "version": 1
  },
  "userdoc": {
    "kind": "user",
    "methods": {
      "delegateTransferFrom(address,address,address,uint256)": {
        "notice": "Only applicable to fungible tokens"
      },
      "delegateTransferFromNFT(address,address,address,uint256)": {
        "notice": "Transfers `serialNumber` of `token` from `from` to `to` using the allowance mechanism. Only applicable to NFT tokens"
      },
      "transferFrom(address,address,address,uint256)": {
        "notice": "Only applicable to fungible tokens"
      },
      "transferFromNFT(address,address,address,uint256)": {
        "notice": "Transfers `serialNumber` of `token` from `from` to `to` using the allowance mechanism. Only applicable to NFT tokens"
      }
    },
    "version": 1
  }
}