{
  "contractName": "RemittanceContract",
  "abi": [
    {
      "inputs": [
        {
          "internalType": "address",
          "name": "_remitTokenAddress",
          "type": "address"
        },
        {
          "internalType": "uint8",
          "name": "_remitTokenType",
          "type": "uint8"
        }
      ],
      "stateMutability": "nonpayable",
      "type": "constructor"
    },
    {
      "inputs": [
        {
          "internalType": "string",
          "name": "bankName",
          "type": "string"
        }
      ],
      "name": "DuplicateBank",
      "type": "error"
    },
    {
      "anonymous": false,
      "inputs": [
        {
          "indexed": false,
          "internalType": "address",
          "name": "contractAddress",
          "type": "address"
        },
        {
          "indexed": false,
          "internalType": "string",
          "name": "bankName",
          "type": "string"
        },
        {
          "indexed": false,
          "internalType": "address",
          "name": "tokenAddress",
          "type": "address"
        },
        {
          "indexed": false,
          "internalType": "address",
          "name": "remitTokenAddress",
          "type": "address"
        },
        {
          "indexed": false,
          "internalType": "uint64",
          "name": "buyRate",
          "type": "uint64"
        },
        {
          "indexed": false,
          "internalType": "uint64",
          "name": "sellRate",
          "type": "uint64"
        },
        {
          "indexed": false,
          "internalType": "address",
          "name": "bankAddress",
          "type": "address"
        }
      ],
      "name": "FxContractNew",
      "type": "event"
    },
    {
      "anonymous": false,
      "inputs": [
        {
          "indexed": false,
          "internalType": "address",
          "name": "remitTokenAddress",
          "type": "address"
        },
        {
          "indexed": false,
          "internalType": "uint8",
          "name": "remitTokenType",
          "type": "uint8"
        },
        {
          "indexed": false,
          "internalType": "int256",
          "name": "responseCode",
          "type": "int256"
        }
      ],
      "name": "RemitRemitTokenCreated",
      "type": "event"
    },
    {
      "anonymous": false,
      "inputs": [
        {
          "indexed": false,
          "internalType": "address",
          "name": "fromAddress",
          "type": "address"
        },
        {
          "indexed": false,
          "internalType": "address",
          "name": "toAddress",
          "type": "address"
        },
        {
          "indexed": false,
          "internalType": "uint64",
          "name": "amount",
          "type": "uint64"
        },
        {
          "indexed": false,
          "internalType": "uint64",
          "name": "firstQuote",
          "type": "uint64"
        },
        {
          "indexed": false,
          "internalType": "uint64",
          "name": "secondQuote",
          "type": "uint64"
        }
      ],
      "name": "RemittanceComplete",
      "type": "event"
    },
    {
      "inputs": [
        {
          "internalType": "uint256",
          "name": "",
          "type": "uint256"
        }
      ],
      "name": "bankAddresses",
      "outputs": [
        {
          "internalType": "address",
          "name": "",
          "type": "address"
        }
      ],
      "stateMutability": "view",
      "type": "function"
    },
    {
      "inputs": [
        {
          "internalType": "uint256",
          "name": "",
          "type": "uint256"
        }
      ],
      "name": "contractAddresses",
      "outputs": [
        {
          "internalType": "address",
          "name": "",
          "type": "address"
        }
      ],
      "stateMutability": "view",
      "type": "function"
    },
    {
      "inputs": [
        {
          "internalType": "address",
          "name": "token",
          "type": "address"
        },
        {
          "internalType": "address",
          "name": "from",
          "type": "address"
        },
        {
          "internalType": "address",
          "name": "to",
          "type": "address"
        },
        {
          "internalType": "uint256",
          "name": "amount",
          "type": "uint256"
        }
      ],
      "name": "delegateTransferFrom",
      "outputs": [
        {
          "internalType": "int64",
          "name": "responseCode",
          "type": "int64"
        }
      ],
      "stateMutability": "nonpayable",
      "type": "function"
    },
    {
      "inputs": [
        {
          "internalType": "address",
          "name": "token",
          "type": "address"
        },
        {
          "internalType": "address",
          "name": "from",
          "type": "address"
        },
        {
          "internalType": "address",
          "name": "to",
          "type": "address"
        },
        {
          "internalType": "uint256",
          "name": "serialNumber",
          "type": "uint256"
        }
      ],
      "name": "delegateTransferFromNFT",
      "outputs": [
        {
          "internalType": "int64",
          "name": "responseCode",
          "type": "int64"
        }
      ],
      "stateMutability": "nonpayable",
      "type": "function"
    },
    {
      "inputs": [
        {
          "internalType": "address",
          "name": "token",
          "type": "address"
        },
        {
          "internalType": "address",
          "name": "from",
          "type": "address"
        },
        {
          "internalType": "address",
          "name": "to",
          "type": "address"
        },
        {
          "internalType": "uint256",
          "name": "amount",
          "type": "uint256"
        }
      ],
      "name": "transferFrom",
      "outputs": [
        {
          "internalType": "int64",
          "name": "responseCode",
          "type": "int64"
        }
      ],
      "stateMutability": "nonpayable",
      "type": "function"
    },
    {
      "inputs": [
        {
          "internalType": "address",
          "name": "token",
          "type": "address"
        },
        {
          "internalType": "address",
          "name": "from",
          "type": "address"
        },
        {
          "internalType": "address",
          "name": "to",
          "type": "address"
        },
        {
          "internalType": "uint256",
          "name": "serialNumber",
          "type": "uint256"
        }
      ],
      "name": "transferFromNFT",
      "outputs": [
        {
          "internalType": "int64",
          "name": "responseCode",
          "type": "int64"
        }
      ],
      "stateMutability": "nonpayable",
      "type": "function"
    },
    {
      "inputs": [],
      "name": "getBankCount",
      "outputs": [
        {
          "internalType": "uint8",
          "name": "count",
          "type": "uint8"
        }
      ],
      "stateMutability": "view",
      "type": "function"
    },
    {
      "inputs": [
        {
          "internalType": "uint8",
          "name": "start",
          "type": "uint8"
        },
        {
          "internalType": "uint8",
          "name": "quantity",
          "type": "uint8"
        }
      ],
      "name": "getBankAddresses",
      "outputs": [
        {
          "internalType": "address[]",
          "name": "",
          "type": "address[]"
        }
      ],
      "stateMutability": "view",
      "type": "function"
    },
    {
      "inputs": [
        {
          "internalType": "uint8",
          "name": "start",
          "type": "uint8"
        },
        {
          "internalType": "uint8",
          "name": "quantity",
          "type": "uint8"
        }
      ],
      "name": "getContractAddresses",
      "outputs": [
        {
          "internalType": "address[]",
          "name": "",
          "type": "address[]"
        }
      ],
      "stateMutability": "view",
      "type": "function"
    },
    {
      "inputs": [
        {
          "internalType": "address",
          "name": "_remitTokenAddress",
          "type": "address"
        },
        {
          "internalType": "uint8",
          "name": "_remitTokenType",
          "type": "uint8"
        }
      ],
      "name": "setRemitTokenAddress",
      "outputs": [],
      "stateMutability": "nonpayable",
      "type": "function"
    },
    {
      "inputs": [],
      "name": "getRemitTokenType",
      "outputs": [
        {
          "internalType": "uint8",
          "name": "",
          "type": "uint8"
        }
      ],
      "stateMutability": "view",
      "type": "function"
    },
    {
      "inputs": [],
      "name": "getRemitTokenAddress",
      "outputs": [
        {
          "internalType": "address",
          "name": "tokenAddress",
          "type": "address"
        }
      ],
      "stateMutability": "view",
      "type": "function"
    },
    {
      "inputs": [
        {
          "internalType": "string",
          "name": "_bankName",
          "type": "string"
        },
        {
          "internalType": "address",
          "name": "_tokenAddress",
          "type": "address"
        },
        {
          "internalType": "address",
          "name": "_fxContractAddress",
          "type": "address"
        }
      ],
      "name": "addFxContract",
      "outputs": [],
      "stateMutability": "nonpayable",
      "type": "function"
    },
    {
      "inputs": [
        {
          "internalType": "contract FXContract",
          "name": "fromContract",
          "type": "address"
        },
        {
          "internalType": "contract FXContract",
          "name": "toContract",
          "type": "address"
        },
        {
          "internalType": "uint64",
          "name": "amount",
          "type": "uint64"
        }
      ],
      "name": "quoteRemit",
      "outputs": [
        {
          "internalType": "uint64",
          "name": "quote",
          "type": "uint64"
        }
      ],
      "stateMutability": "view",
      "type": "function"
    },
    {
      "inputs": [
        {
          "internalType": "contract FXContract",
          "name": "fromContract",
          "type": "address"
        },
        {
          "internalType": "contract FXContract",
          "name": "toContract",
          "type": "address"
        },
        {
          "internalType": "uint64",
          "name": "amount",
          "type": "uint64"
        }
      ],
      "name": "quoteRemitOther",
      "outputs": [
        {
          "internalType": "uint64",
          "name": "quote",
          "type": "uint64"
        }
      ],
      "stateMutability": "view",
      "type": "function"
    },
    {
      "inputs": [
        {
          "internalType": "contract FXContract",
          "name": "fromContract",
          "type": "address"
        },
        {
          "internalType": "contract FXContract",
          "name": "toContract",
          "type": "address"
        },
        {
          "internalType": "uint64",
          "name": "amount",
          "type": "uint64"
        },
        {
          "internalType": "address",
          "name": "toAddress",
          "type": "address"
        },
        {
          "internalType": "uint64",
          "name": "quote",
          "type": "uint64"
        },
        {
          "internalType": "int64",
          "name": "slippage",
          "type": "int64"
        }
      ],
      "name": "remit",
      "outputs": [],
      "stateMutability": "nonpayable",
      "type": "function"
    },
    {
      "inputs": [],
      "name": "getDetails",
      "outputs": [
        {
          "internalType": "address[]",
          "name": "",
          "type": "address[]"
        },
        {
          "internalType": "address[]",
          "name": "",
          "type": "address[]"
        },
        {
          "internalType": "address",
          "name": "",
          "type": "address"
        },
        {
          "internalType": "uint8",
          "name": "",
          "type": "uint8"
        },
        {
          "internalType": "uint8",
          "name": "",
          "type": "uint8"
        }
      ],
      "stateMutability": "view",
      "type": "function"
    }
  ],
  "bytecode": "0x608060405260058054600160a01b600160e01b031916613d0960a61b1790553480156200002b57600080fd5b5060405162002013380380620020138339810160408190526200004e9162000373565b600160208181527fa6eef7e35abe7026729641147f7915573c7e97b47efa546f5f6e3230263bcb499190915560027fcc69885fda6bcc1a4ace058b4a62bf5e179ea78fd58a1ccd71c22cc9b688792f5560047fd9d16d34ffb15ba3a3d852f0d403e2ce1d691fb54de27ac87cd2f993f3ec330f81905560087f7dfe757ecd65cbd7922a9c0161e935dd7fdbcc0e999689c7d31633896b1fc60b5560107fedc95719e9a3b28dd8e80877cb5880a9be7de1a13fc8b05e7999683b6b567643557fe2689cd4a84e23ad2f564004f1c9013e9589d260bde6380aba3ca7e09e4df40c91909155600660005260407f8f331abe73332f95a25873e8b430885974c0409691f89d643119a11623a7924a5580546001600160a01b0384166001600160a81b031990911617600160a01b60ff848116820292909217928390559091041662000228576000620001be30600460009054906101000a90046001600160a01b03166200029760201b6200133d1760201c565b90506016811480620001d0575060c281145b620002215760405162461bcd60e51b815260206004820152601e60248201527f52656d697420746f6b656e206173736f63696174696f6e206661696c65640000604482015260640160405180910390fd5b5062000244565b600580546001600160a01b0319166001600160a01b0384161790555b604080516001600160a01b038416815260ff8316602082015260168183015290517f582c65ac4dd381a1b4e153f12363b1b276a4a9aba4a5bf8bcc3e360caee37d979181900360600190a150506200042c565b604080516001600160a01b038481166024830152831660448083019190915282518083039091018152606490910182526020810180516001600160e01b031663248a35ef60e11b17905290516000918291829161016791620002fa9190620003c2565b6000604051808303816000865af19150503d806000811462000339576040519150601f19603f3d011682016040523d82523d6000602084013e6200033e565b606091505b5091509150816200035157601562000367565b8080602001905181019062000367919062000400565b60030b95945050505050565b600080604083850312156200038757600080fd5b82516001600160a01b03811681146200039f57600080fd5b602084015190925060ff81168114620003b757600080fd5b809150509250929050565b6000825160005b81811015620003e55760208186018101518583015201620003c9565b81811115620003f5576000828501525b509190910192915050565b6000602082840312156200041357600080fd5b81518060030b81146200042557600080fd5b9392505050565b611bd7806200043c6000396000f3fe608060405234801561001057600080fd5b506004361061011b5760003560e01c80633263b545116100b25780639b23d3d911610081578063cf3b9dc111610066578063cf3b9dc11461027f578063eac6f3fe14610291578063fbbf93a0146102a457600080fd5b80639b23d3d914610259578063cb3e41911461026c57600080fd5b80633263b5451461020d578063666a19f81461022057806374bccc3c14610233578063989176e11461024657600080fd5b806315dacbea116100ee57806315dacbea146101bc57806318930469146101cf578063248f0839146101e25780632e44715d146101f757600080fd5b806301c30ef31461012057806302fe9cdb1461015157806311e1fc0714610176578063147fdea01461019c575b600080fd5b61013361012e3660046114dc565b6102bd565b60405167ffffffffffffffff90911681526020015b60405180910390f35b6004546001600160a01b03165b6040516001600160a01b039091168152602001610148565b610189610184366004611537565b6103e9565b60405160079190910b8152602001610148565b6101af6101aa366004611599565b6104f3565b6040516101489190611610565b6101896101ca366004611537565b6105f6565b6101336101dd3660046114dc565b6106ca565b6101f56101f036600461162a565b61077d565b005b6002545b60405160ff9091168152602001610148565b61015e61021b366004611648565b61087b565b6101f561022e366004611661565b6108a5565b61015e610241366004611648565b610b9a565b6101f5610254366004611700565b610baa565b610189610267366004611537565b6110c6565b6101af61027a366004611599565b61110b565b600454600160a01b900460ff166101fb565b61018961029f366004611537565b611205565b6102ac61124a565b6040516101489594939291906117d2565b6040517f9837067700000000000000000000000000000000000000000000000000000000815267ffffffffffffffff8216600482015260009081906001600160a01b03861690639837067790602401602060405180830381865afa158015610329573d6000803e3d6000fd5b505050506040513d601f19601f8201168201806040525081019061034d9190611822565b6040517f97bdfcfa00000000000000000000000000000000000000000000000000000000815267ffffffffffffffff821660048201529091506000906001600160a01b038616906397bdfcfa906024015b602060405180830381865afa1580156103bb573d6000803e3d6000fd5b505050506040513d601f19601f820116820180604052508101906103df9190611822565b9695505050505050565b6040516001600160a01b038581166024830152848116604483015283166064820152608481018290526000908190819061016790639b23d3d960e01b9060a4015b60408051601f198184030181529181526020820180516001600160e01b03167fffffffff00000000000000000000000000000000000000000000000000000000909416939093179092529051610480919061186f565b600060405180830381855af49150503d80600081146104bb576040519150601f19603f3d011682016040523d82523d6000602084013e6104c0565b606091505b5091509150816104d15760156104e5565b808060200190518101906104e5919061188b565b60030b979650505050505050565b6060600061050183856118c4565b905060028054905060ff168160ff161061051a57506002545b600061052685836118e9565b60ff1667ffffffffffffffff811115610541576105416116ea565b60405190808252806020026020018201604052801561056a578160200160208202803683370190505b50905060ff85165b8260ff168110156105ed57600281815481106105905761059061190c565b6000918252602090912001546001600160a01b0316826105b360ff891684611922565b815181106105c3576105c361190c565b6001600160a01b0390921660209283029190910190910152806105e581611939565b915050610572565b50949350505050565b6040516001600160a01b038581166024830152848116604483015283166064820152608481018290526000908190819061016790630aed65f560e11b9060a4015b60408051601f198184030181529181526020820180516001600160e01b03167fffffffff0000000000000000000000000000000000000000000000000000000090941693909317909252905161068d919061186f565b6000604051808303816000865af19150503d80600081146104bb576040519150601f19603f3d011682016040523d82523d6000602084013e6104c0565b604051635f00af3360e01b815267ffffffffffffffff8216600482015260009081906001600160a01b03861690635f00af3390602401602060405180830381865afa15801561071d573d6000803e3d6000fd5b505050506040513d601f19601f820116820180604052508101906107419190611822565b6040516374f5cad760e01b815267ffffffffffffffff821660048201529091506000906001600160a01b038616906374f5cad79060240161039e565b6004805460ff808416600160a01b9081027fffffffffffffffffffffff0000000000000000000000000000000000000000009093166001600160a01b03871617929092179283905591041661084d576004546000906107e69030906001600160a01b031661133d565b905060168114806107f7575060c281145b6108485760405162461bcd60e51b815260206004820152601e60248201527f52656d697420746f6b656e206173736f63696174696f6e206661696c6564000060448201526064015b60405180910390fd5b505050565b600580546001600160a01b03841673ffffffffffffffffffffffffffffffffffffffff199091161790555050565b6003818154811061088b57600080fd5b6000918252602090912001546001600160a01b0316905081565b604051635f00af3360e01b815267ffffffffffffffff851660048201526000906001600160a01b03881690635f00af3390602401602060405180830381865afa1580156108f6573d6000803e3d6000fd5b505050506040513d601f19601f8201168201806040525081019061091a9190611822565b6040516374f5cad760e01b815267ffffffffffffffff821660048201529091506000906001600160a01b038816906374f5cad790602401602060405180830381865afa15801561096e573d6000803e3d6000fd5b505050506040513d601f19601f820116820180604052508101906109929190611822565b90506000816109a2866064611952565b6109ac9190611982565b6109b79060646119b7565b90508360070b6109c68261142a565b60070b1315610a175760405162461bcd60e51b815260206004820152601160248201527f736c697070616765206578636565646564000000000000000000000000000000604482015260640161083f565b6040517f2316d33100000000000000000000000000000000000000000000000000000000815233600482015267ffffffffffffffff8089166024830152841660448201526001600160a01b0389811660648301528a1690632316d33190608401600060405180830381600087803b158015610a9157600080fd5b505af1158015610aa5573d6000803e3d6000fd5b50506040517f88a4c59500000000000000000000000000000000000000000000000000000000815267ffffffffffffffff851660048201526001600160a01b0389811660248301528b1692506388a4c5959150604401600060405180830381600087803b158015610b1557600080fd5b505af1158015610b29573d6000803e3d6000fd5b5050604080513381526001600160a01b038a16602082015267ffffffffffffffff8b81168284015287811660608301528616608082015290517ffd8fa77eadf48e7703b74ae09e201046939f0d53e3e125f0968550de7656e06c93509081900360a0019150a1505050505050505050565b6002818154811061088b57600080fd5b6004546001600160a01b0316610c025760405162461bcd60e51b815260206004820152601760248201527f52656d697420746f6b656e206e6f742063726561746564000000000000000000604482015260640161083f565b60005b600254811015610c8c57336001600160a01b031660028281548110610c2c57610c2c61190c565b6000918252602090912001546001600160a01b031603610c7a57836040517f6ef690ae00000000000000000000000000000000000000000000000000000000815260040161083f9190611a35565b80610c8481611939565b915050610c05565b506002805460018082019092557f405787fa12a823e0f2b7631cc41b3ba8828b3321ca811111fa75cd3aa3bb5ace0180543373ffffffffffffffffffffffffffffffffffffffff19918216179091556003805492830181556000527fc2575a0e9e593c00f959f8c92f12db2869c3395a3b0502d05e2516446f71f85b90910180549091166001600160a01b03838116918217909255600480546040517fb453ee4000000000000000000000000000000000000000000000000000000000815293811691840191909152600160a01b900460ff166024830152829163b453ee4090604401600060405180830381600087803b158015610d8957600080fd5b505af1158015610d9d573d6000803e3d6000fd5b5050600454600160a01b900460ff169150610e72905057600454600554600091610df4916001600160a01b039091169030908690610def90600160a01b900467ffffffffffffffff16620f4240611a48565b61144d565b905060168114610e6c5760405162461bcd60e51b815260206004820152602a60248201527f5472616e736665722052656d697420546f6b656e7320746f204658436f6e747260448201527f616374206661696c656400000000000000000000000000000000000000000000606482015260840161083f565b50610f39565b6005546001600160a01b0381169063a9059cbb908490610ea690600160a01b900467ffffffffffffffff16620f4240611952565b6040517fffffffff0000000000000000000000000000000000000000000000000000000060e085901b1681526001600160a01b03909216600483015267ffffffffffffffff1660248201526044016020604051808303816000875af1158015610f13573d6000803e3d6000fd5b505050506040513d601f19601f82011682018060405250810190610f379190611adf565b505b6000816001600160a01b0316633d35d7ba6040518163ffffffff1660e01b8152600401602060405180830381865afa158015610f79573d6000803e3d6000fd5b505050506040513d601f19601f82011682018060405250810190610f9d9190611822565b90506000826001600160a01b031663226fd9eb6040518163ffffffff1660e01b8152600401602060405180830381865afa158015610fdf573d6000803e3d6000fd5b505050506040513d601f19601f820116820180604052508101906110039190611822565b90506000836001600160a01b03166366f780e96040518163ffffffff1660e01b8152600401602060405180830381865afa158015611045573d6000803e3d6000fd5b505050506040513d601f19601f820116820180604052508101906110699190611b01565b6004546040519192507f8bf072c57227117512eea64cc203e3dedb14e4b0c6b3e441703fdb837dd010a0916110b59188918b918b916001600160a01b0390911690899089908990611b1e565b60405180910390a150505050505050565b6040516001600160a01b038581166024830152848116604483015283166064820152608481018290526000908190819061016790639b23d3d960e01b9060a401610637565b6060600061111983856118c4565b905060038054905060ff168160ff161061113257506003545b600061113e85836118e9565b60ff1667ffffffffffffffff811115611159576111596116ea565b604051908082528060200260200182016040528015611182578160200160208202803683370190505b50905060ff85165b8260ff168110156105ed57600381815481106111a8576111a861190c565b6000918252602090912001546001600160a01b0316826111cb60ff891684611922565b815181106111db576111db61190c565b6001600160a01b0390921660209283029190910190910152806111fd81611939565b91505061118a565b6040516001600160a01b038581166024830152848116604483015283166064820152608481018290526000908190819061016790630aed65f560e11b9060a40161042a565b600454600280546040805160208084028201810190925282815260609485946000948594859492936003936001600160a01b03821693600160a01b90920460ff1692869083908301828280156112c957602002820191906000526020600020905b81546001600160a01b031681526001909101906020018083116112ab575b505050505094508380548060200260200160405190810160405280929190818152602001828054801561132557602002820191906000526020600020905b81546001600160a01b03168152600190910190602001808311611307575b50505050509350945094509450945094509091929394565b604080516001600160a01b038481166024830152831660448083019190915282518083039091018152606490910182526020810180516001600160e01b03167f49146bde00000000000000000000000000000000000000000000000000000000179052905160009182918291610167916113b7919061186f565b6000604051808303816000865af19150503d80600081146113f4576040519150601f19603f3d011682016040523d82523d6000602084013e6113f9565b606091505b50915091508161140a57601561141e565b8080602001905181019061141e919061188b565b60030b95945050505050565b6000808260070b12156114455761144082611b7a565b611447565b815b92915050565b6040516001600160a01b038581166024830152848116604483015283166064820152600782900b608482015260009081908190610167907feca36917000000000000000000000000000000000000000000000000000000009060a401610637565b6001600160a01b03811681146114c357600080fd5b50565b67ffffffffffffffff811681146114c357600080fd5b6000806000606084860312156114f157600080fd5b83356114fc816114ae565b9250602084013561150c816114ae565b9150604084013561151c816114c6565b809150509250925092565b8035611532816114ae565b919050565b6000806000806080858703121561154d57600080fd5b8435611558816114ae565b93506020850135611568816114ae565b92506040850135611578816114ae565b9396929550929360600135925050565b803560ff8116811461153257600080fd5b600080604083850312156115ac57600080fd5b6115b583611588565b91506115c360208401611588565b90509250929050565b600081518084526020808501945080840160005b838110156116055781516001600160a01b0316875295820195908201906001016115e0565b509495945050505050565b60208152600061162360208301846115cc565b9392505050565b6000806040838503121561163d57600080fd5b82356115b5816114ae565b60006020828403121561165a57600080fd5b5035919050565b60008060008060008060c0878903121561167a57600080fd5b8635611685816114ae565b95506020870135611695816114ae565b945060408701356116a5816114c6565b935060608701356116b5816114ae565b925060808701356116c5816114c6565b915060a0870135600781900b81146116dc57600080fd5b809150509295509295509295565b634e487b7160e01b600052604160045260246000fd5b60008060006060848603121561171557600080fd5b833567ffffffffffffffff8082111561172d57600080fd5b818601915086601f83011261174157600080fd5b813581811115611753576117536116ea565b604051601f8201601f19908116603f0116810190838211818310171561177b5761177b6116ea565b8160405282815289602084870101111561179457600080fd5b8260208601602083013760006020848301015280975050505050506117bb60208501611527565b91506117c960408501611527565b90509250925092565b60a0815260006117e560a08301886115cc565b82810360208401526117f781886115cc565b6001600160a01b03969096166040840152505060ff9283166060820152911660809091015292915050565b60006020828403121561183457600080fd5b8151611623816114c6565b60005b8381101561185a578181015183820152602001611842565b83811115611869576000848401525b50505050565b6000825161188181846020870161183f565b9190910192915050565b60006020828403121561189d57600080fd5b81518060030b811461162357600080fd5b634e487b7160e01b600052601160045260246000fd5b600060ff821660ff84168060ff038211156118e1576118e16118ae565b019392505050565b600060ff821660ff841680821015611903576119036118ae565b90039392505050565b634e487b7160e01b600052603260045260246000fd5b600082821015611934576119346118ae565b500390565b60006001820161194b5761194b6118ae565b5060010190565b600067ffffffffffffffff80831681851681830481118215151615611979576119796118ae565b02949350505050565b600067ffffffffffffffff808416806119ab57634e487b7160e01b600052601260045260246000fd5b92169190910492915050565b60008160070b8360070b6000811281677fffffffffffffff19018312811516156119e3576119e36118ae565b81677fffffffffffffff0183138116156119ff576119ff6118ae565b5090039392505050565b60008151808452611a2181602086016020860161183f565b601f01601f19169290920160200192915050565b6020815260006116236020830184611a09565b60008160070b8360070b677fffffffffffffff600082136000841383830485118282161615611a7957611a796118ae565b677fffffffffffffff196000851282811687830587121615611a9d57611a9d6118ae565b60008712925085820587128484161615611ab957611ab96118ae565b85850587128184161615611acf57611acf6118ae565b5050509290910295945050505050565b600060208284031215611af157600080fd5b8151801515811461162357600080fd5b600060208284031215611b1357600080fd5b8151611623816114ae565b60006001600160a01b03808a16835260e06020840152611b4160e084018a611a09565b978116604084015295861660608301525067ffffffffffffffff93841660808201529190921660a0820152911660c09091015292915050565b60008160070b677fffffffffffffff198103611b9857611b986118ae565b6000039291505056fea2646970667358221220191752c1335d42a2513c7c783b4715e6eac1f0703c310e3d4642cc004141818364736f6c634300080e0033",
  "immutableReferences": {},
  "source": "// SPDX-License-Identifier: Apache-2.0\npragma solidity >=0.4.22 <0.9.0;\n\nimport \"./FXContract.sol\";\nimport \"./hts-precompile/IHederaTokenService.sol\";\nimport \"./hts-precompile/HederaResponseCodes.sol\";\nimport \"./hts-precompile/KeyHelper.sol\";\nimport \"./hts-precompile/ExpiryHelper.sol\";\nimport \"./ERC20Token.sol\";\nimport \"./TokenTypes.sol\";\n\ncontract RemittanceContract is HederaTokenService, ExpiryHelper, KeyHelper {\n    address[] public bankAddresses;\n    address[] public contractAddresses;\n    address remitTokenAddress;\n    uint8 remitTokenType;\n    IERC20 remitTokenERC20;\n\n    uint64 MULTIPLIER = 1000000; // We assume that all tokens have 6 decimal digits\n\n    event RemitRemitTokenCreated(\n        address remitTokenAddress,\n        uint8 remitTokenType,\n        int responseCode\n    );\n    event FxContractNew(\n        address contractAddress,\n        string bankName,\n        address tokenAddress,\n        address remitTokenAddress,\n        uint64 buyRate,\n        uint64 sellRate,\n        address bankAddress\n    );\n    event RemittanceComplete(\n        address fromAddress,\n        address toAddress,\n        uint64 amount,\n        uint64 firstQuote,\n        uint64 secondQuote\n    );\n\n    error DuplicateBank(string bankName);\n\n    constructor(address _remitTokenAddress, uint8 _remitTokenType) {\n        remitTokenAddress = _remitTokenAddress;\n        remitTokenType = _remitTokenType;\n\n        if (remitTokenType == TokenTypes.NATIVE_TOKEN) {\n            int responseCodeInt = HederaTokenService.associateToken(\n                address(this),\n                remitTokenAddress\n            );\n            require(\n                (responseCodeInt == HederaResponseCodes.SUCCESS) ||\n                    (responseCodeInt ==\n                        HederaResponseCodes\n                            .TOKEN_ALREADY_ASSOCIATED_TO_ACCOUNT),\n                \"Remit token association failed\"\n            );\n        } else {\n            remitTokenERC20 = IERC20(_remitTokenAddress);\n        }\n        emit RemitRemitTokenCreated(\n            _remitTokenAddress,\n            _remitTokenType,\n            HederaResponseCodes.SUCCESS\n        );\n    }\n\n    function getBankCount() public view returns (uint8 count) {\n        return uint8(bankAddresses.length);\n    }\n\n    function getBankAddresses(\n        uint8 start,\n        uint8 quantity\n    ) public view returns (address[] memory) {\n        uint8 end = start + quantity;\n\n        if (end >= uint8(bankAddresses.length)) {\n            end = uint8(bankAddresses.length);\n        }\n\n        address[] memory addresses = new address[](end - start);\n\n        for (uint i = start; i < end; i++) {\n            addresses[i - start] = bankAddresses[i];\n        }\n\n        return addresses;\n    }\n\n    function getContractAddresses(\n        uint8 start,\n        uint8 quantity\n    ) public view returns (address[] memory) {\n        uint8 end = start + quantity;\n\n        if (end >= uint8(contractAddresses.length)) {\n            end = uint8(contractAddresses.length);\n        }\n\n        address[] memory addresses = new address[](end - start);\n\n        for (uint i = start; i < end; i++) {\n            addresses[i - start] = contractAddresses[i];\n        }\n\n        return addresses;\n    }\n\n    // Not used currently and should not be used\n    function setRemitTokenAddress(\n        address _remitTokenAddress,\n        uint8 _remitTokenType\n    ) external {\n        remitTokenAddress = _remitTokenAddress;\n        remitTokenType = _remitTokenType;\n\n        if (remitTokenType == TokenTypes.NATIVE_TOKEN) {\n            int responseCodeInt = HederaTokenService.associateToken(\n                address(this),\n                remitTokenAddress\n            );\n            require(\n                (responseCodeInt == HederaResponseCodes.SUCCESS) ||\n                    (responseCodeInt ==\n                        HederaResponseCodes\n                            .TOKEN_ALREADY_ASSOCIATED_TO_ACCOUNT),\n                \"Remit token association failed\"\n            );\n        } else {\n            remitTokenERC20 = IERC20(_remitTokenAddress);\n        }\n    }\n\n    function getRemitTokenType() public view returns (uint8) {\n        return remitTokenType;\n    }\n\n    function getRemitTokenAddress()\n        external\n        view\n        returns (address tokenAddress)\n    {\n        return remitTokenAddress;\n    }\n\n    function addFxContract(\n        string memory _bankName,\n        address _tokenAddress,\n        address _fxContractAddress\n    ) public {\n        require(remitTokenAddress != address(0), \"Remit token not created\");\n\n        // check if the bank is already registered\n        for (uint i = 0; i < bankAddresses.length; i++) {\n            if (bankAddresses[i] == msg.sender) {\n                revert DuplicateBank({bankName: _bankName});\n            }\n        }\n\n        bankAddresses.push(msg.sender);\n        contractAddresses.push(address(_fxContractAddress));\n\n        FXContract fxContract = FXContract(_fxContractAddress);\n        // Set remit token to FXContract\n        fxContract.setRemitToken(remitTokenAddress, remitTokenType);\n        if (remitTokenType == TokenTypes.NATIVE_TOKEN) {\n            int responseCodeInt = HederaTokenService.transferToken(\n                remitTokenAddress,\n                address(this),\n                _fxContractAddress,\n                1000000 * int64(MULTIPLIER)\n            );\n            require(\n                (responseCodeInt == HederaResponseCodes.SUCCESS),\n                \"Transfer Remit Tokens to FXContract failed\"\n            );\n        } else {\n            remitTokenERC20.transfer(\n                _fxContractAddress,\n                uint256(1000000 * uint64(MULTIPLIER))\n            );\n        }\n\n        uint64 _fxContractBuyRate = fxContract.getBuyRate();\n        uint64 _fxContractSellRate = fxContract.getSellRate();\n        address _fxContractBankAddress = fxContract.getBankAddress();\n\n        emit FxContractNew(\n            address(_fxContractAddress),\n            _bankName,\n            _tokenAddress,\n            remitTokenAddress,\n            _fxContractBuyRate,\n            _fxContractSellRate,\n            _fxContractBankAddress\n        );\n    }\n\n    function quoteRemit(\n        FXContract fromContract,\n        FXContract toContract,\n        uint64 amount\n    ) public view returns (uint64 quote) {\n        uint64 firstQuote = fromContract.sellQuote(amount);\n        uint64 secondQuote = toContract.buyQuote(firstQuote);\n        return secondQuote;\n    }\n\n    function quoteRemitOther(\n        FXContract fromContract,\n        FXContract toContract,\n        uint64 amount\n    ) public view returns (uint64 quote) {\n        uint64 firstQuote = fromContract.sellQuoteOther(amount);\n        uint64 secondQuote = toContract.buyQuoteOther(firstQuote);\n        return secondQuote;\n    }\n\n    // TODO: add swap function (Alice buys Remit from eXYZ from the LP pool, or sells eXYZ for Remit)\n    function abs(int64 x) private pure returns (int64) {\n        return x >= 0 ? x : -x;\n    }\n\n    function remit(\n        FXContract fromContract,\n        FXContract toContract,\n        uint64 amount,\n        address toAddress,\n        uint64 quote,\n        int64 slippage\n    ) public {\n        uint64 firstQuote = fromContract.sellQuote(amount);\n        uint64 secondQuote = toContract.buyQuote(firstQuote);\n        // Check slippage, if second quote is more than slippage different, revert\n        int64 calculatedSlippage = 100 - int64((quote * 100) / secondQuote);\n        require(abs(calculatedSlippage) <= slippage, \"slippage exceeded\");\n\n        // Alice transfers to bank, using approval\n        // from contract also transfers remittance token to the to-contract\n        fromContract.userDeposit(\n            msg.sender,\n            amount,\n            firstQuote,\n            address(toContract)\n        );\n        toContract.userWithdraw(secondQuote, toAddress);\n        emit RemittanceComplete(\n            msg.sender,\n            toAddress,\n            amount,\n            firstQuote,\n            secondQuote\n        );\n    }\n\n    function getDetails()\n        external\n        view\n        returns (address[] memory, address[] memory, address, uint8, uint8)\n    {\n        return (\n            bankAddresses,\n            contractAddresses,\n            remitTokenAddress,\n            remitTokenType,\n            uint8(bankAddresses.length)\n        );\n    }\n}\n",
  "sourcePath": "C:\\Users\\anmol\\Downloads\\cross-border-money-txn\\cross-border-money-txn\\web\\contracts\\RemittanceContract.sol",
  "compiler": {
    "name": "solc",
    "version": "0.8.14+commit.80d49f37.Emscripten.clang"
  },
  "schemaVersion": "3.4.16",
  "updatedAt": "2024-01-11T22:45:50.486Z",
  "devdoc": {
    "kind": "dev",
    "methods": {
      "delegateTransferFrom(address,address,address,uint256)": {
        "params": {
          "amount": "The amount of tokens to transfer from `from` to `to`",
          "from": "The account address of the owner of the token, on the behalf of which to transfer `amount` tokens",
          "to": "The account address of the receiver of the `amount` tokens",
          "token": "The address of the fungible Hedera token to transfer"
        },
        "returns": {
          "responseCode": "The response code for the status of the request. SUCCESS is 22."
        }
      },
      "delegateTransferFromNFT(address,address,address,uint256)": {
        "params": {
          "from": "The account address of the owner of `serialNumber` of `token`",
          "serialNumber": "The NFT serial number to transfer",
          "to": "The account address of the receiver of `serialNumber`",
          "token": "The address of the non-fungible Hedera token to transfer"
        },
        "returns": {
          "responseCode": "The response code for the status of the request. SUCCESS is 22."
        }
      },
      "transferFrom(address,address,address,uint256)": {
        "params": {
          "amount": "The amount of tokens to transfer from `from` to `to`",
          "from": "The account address of the owner of the token, on the behalf of which to transfer `amount` tokens",
          "to": "The account address of the receiver of the `amount` tokens",
          "token": "The address of the fungible Hedera token to transfer"
        },
        "returns": {
          "responseCode": "The response code for the status of the request. SUCCESS is 22."
        }
      },
      "transferFromNFT(address,address,address,uint256)": {
        "params": {
          "from": "The account address of the owner of `serialNumber` of `token`",
          "serialNumber": "The NFT serial number to transfer",
          "to": "The account address of the receiver of `serialNumber`",
          "token": "The address of the non-fungible Hedera token to transfer"
        },
        "returns": {
          "responseCode": "The response code for the status of the request. SUCCESS is 22."
        }
      }
    },
    "version": 1
  },
  "userdoc": {
    "kind": "user",
    "methods": {
      "delegateTransferFrom(address,address,address,uint256)": {
        "notice": "Only applicable to fungible tokens"
      },
      "delegateTransferFromNFT(address,address,address,uint256)": {
        "notice": "Transfers `serialNumber` of `token` from `from` to `to` using the allowance mechanism. Only applicable to NFT tokens"
      },
      "transferFrom(address,address,address,uint256)": {
        "notice": "Only applicable to fungible tokens"
      },
      "transferFromNFT(address,address,address,uint256)": {
        "notice": "Transfers `serialNumber` of `token` from `from` to `to` using the allowance mechanism. Only applicable to NFT tokens"
      }
    },
    "version": 1
  }
}